{
  "_format": "hh-sol-artifact-1",
  "contractName": "HeroMarketplace",
  "sourceName": "contracts/HeroMarketplace.sol",
  "abi": [
    {
      "inputs": [
        {
          "internalType": "contract IERC20",
          "name": "_token",
          "type": "address"
        },
        {
          "internalType": "contract IERC721Enumerable",
          "name": "_nft",
          "type": "address"
        }
      ],
      "stateMutability": "nonpayable",
      "type": "constructor"
    },
    {
      "anonymous": false,
      "inputs": [
        {
          "indexed": true,
          "internalType": "address",
          "name": "_from",
          "type": "address"
        },
        {
          "indexed": false,
          "internalType": "uint256",
          "name": "_tokenId",
          "type": "uint256"
        },
        {
          "indexed": false,
          "internalType": "uint256",
          "name": "_price",
          "type": "uint256"
        }
      ],
      "name": "BuyNFT",
      "type": "event"
    },
    {
      "anonymous": false,
      "inputs": [
        {
          "indexed": true,
          "internalType": "address",
          "name": "_from",
          "type": "address"
        },
        {
          "indexed": false,
          "internalType": "uint256",
          "name": "_tokenId",
          "type": "uint256"
        },
        {
          "indexed": false,
          "internalType": "uint256",
          "name": "_price",
          "type": "uint256"
        }
      ],
      "name": "ListNFT",
      "type": "event"
    },
    {
      "anonymous": false,
      "inputs": [
        {
          "indexed": true,
          "internalType": "address",
          "name": "previousOwner",
          "type": "address"
        },
        {
          "indexed": true,
          "internalType": "address",
          "name": "newOwner",
          "type": "address"
        }
      ],
      "name": "OwnershipTransferred",
      "type": "event"
    },
    {
      "anonymous": false,
      "inputs": [
        {
          "indexed": false,
          "internalType": "contract IERC721Enumerable",
          "name": "_nft",
          "type": "address"
        }
      ],
      "name": "SetNFT",
      "type": "event"
    },
    {
      "anonymous": false,
      "inputs": [
        {
          "indexed": false,
          "internalType": "uint256",
          "name": "_tax",
          "type": "uint256"
        }
      ],
      "name": "SetTax",
      "type": "event"
    },
    {
      "anonymous": false,
      "inputs": [
        {
          "indexed": false,
          "internalType": "contract IERC20",
          "name": "_token",
          "type": "address"
        }
      ],
      "name": "SetToken",
      "type": "event"
    },
    {
      "anonymous": false,
      "inputs": [
        {
          "indexed": true,
          "internalType": "address",
          "name": "_from",
          "type": "address"
        },
        {
          "indexed": false,
          "internalType": "uint256",
          "name": "_tokenId",
          "type": "uint256"
        }
      ],
      "name": "UnlistNFT",
      "type": "event"
    },
    {
      "anonymous": false,
      "inputs": [
        {
          "indexed": false,
          "internalType": "uint256",
          "name": "_tokenId",
          "type": "uint256"
        },
        {
          "indexed": false,
          "internalType": "uint256",
          "name": "_price",
          "type": "uint256"
        }
      ],
      "name": "UpdateListingNFTPrice",
      "type": "event"
    },
    {
      "inputs": [
        {
          "internalType": "uint256",
          "name": "_tokenId",
          "type": "uint256"
        },
        {
          "internalType": "uint256",
          "name": "_price",
          "type": "uint256"
        }
      ],
      "name": "buyNft",
      "outputs": [],
      "stateMutability": "nonpayable",
      "type": "function"
    },
    {
      "inputs": [],
      "name": "getListedNft",
      "outputs": [
        {
          "components": [
            {
              "internalType": "address payable",
              "name": "author",
              "type": "address"
            },
            {
              "internalType": "uint256",
              "name": "price",
              "type": "uint256"
            },
            {
              "internalType": "uint256",
              "name": "tokenId",
              "type": "uint256"
            }
          ],
          "internalType": "struct HeroMarketplace.ListDetail[]",
          "name": "",
          "type": "tuple[]"
        }
      ],
      "stateMutability": "view",
      "type": "function"
    },
    {
      "inputs": [
        {
          "internalType": "uint256",
          "name": "_tokenId",
          "type": "uint256"
        },
        {
          "internalType": "uint256",
          "name": "_price",
          "type": "uint256"
        }
      ],
      "name": "listNft",
      "outputs": [],
      "stateMutability": "nonpayable",
      "type": "function"
    },
    {
      "inputs": [
        {
          "internalType": "address",
          "name": "",
          "type": "address"
        },
        {
          "internalType": "address",
          "name": "",
          "type": "address"
        },
        {
          "internalType": "uint256",
          "name": "",
          "type": "uint256"
        },
        {
          "internalType": "bytes",
          "name": "",
          "type": "bytes"
        }
      ],
      "name": "onERC721Received",
      "outputs": [
        {
          "internalType": "bytes4",
          "name": "",
          "type": "bytes4"
        }
      ],
      "stateMutability": "pure",
      "type": "function"
    },
    {
      "inputs": [],
      "name": "owner",
      "outputs": [
        {
          "internalType": "address",
          "name": "",
          "type": "address"
        }
      ],
      "stateMutability": "view",
      "type": "function"
    },
    {
      "inputs": [],
      "name": "renounceOwnership",
      "outputs": [],
      "stateMutability": "nonpayable",
      "type": "function"
    },
    {
      "inputs": [
        {
          "internalType": "contract IERC721Enumerable",
          "name": "_nft",
          "type": "address"
        }
      ],
      "name": "setNft",
      "outputs": [],
      "stateMutability": "nonpayable",
      "type": "function"
    },
    {
      "inputs": [
        {
          "internalType": "uint256",
          "name": "_tax",
          "type": "uint256"
        }
      ],
      "name": "setTax",
      "outputs": [],
      "stateMutability": "nonpayable",
      "type": "function"
    },
    {
      "inputs": [
        {
          "internalType": "contract IERC20",
          "name": "_token",
          "type": "address"
        }
      ],
      "name": "setToken",
      "outputs": [],
      "stateMutability": "nonpayable",
      "type": "function"
    },
    {
      "inputs": [
        {
          "internalType": "address",
          "name": "newOwner",
          "type": "address"
        }
      ],
      "name": "transferOwnership",
      "outputs": [],
      "stateMutability": "nonpayable",
      "type": "function"
    },
    {
      "inputs": [
        {
          "internalType": "uint256",
          "name": "_tokenId",
          "type": "uint256"
        }
      ],
      "name": "unlistNft",
      "outputs": [],
      "stateMutability": "nonpayable",
      "type": "function"
    },
    {
      "inputs": [
        {
          "internalType": "uint256",
          "name": "_tokenId",
          "type": "uint256"
        },
        {
          "internalType": "uint256",
          "name": "_price",
          "type": "uint256"
        }
      ],
      "name": "updateListingNftPrice",
      "outputs": [],
      "stateMutability": "nonpayable",
      "type": "function"
    },
    {
      "inputs": [],
      "name": "withdraw",
      "outputs": [],
      "stateMutability": "nonpayable",
      "type": "function"
    },
    {
      "inputs": [],
      "name": "withdrawErc20",
      "outputs": [],
      "stateMutability": "nonpayable",
      "type": "function"
    },
    {
      "inputs": [
        {
          "internalType": "uint256",
          "name": "amount",
          "type": "uint256"
        }
      ],
      "name": "withdrawToken",
      "outputs": [],
      "stateMutability": "nonpayable",
      "type": "function"
    }
  ],
  "bytecode": "0x6080604052600a6003553480156200001657600080fd5b5060405162002eb438038062002eb483398181016040528101906200003c919062000275565b6200005c62000050620000e660201b60201c565b620000ee60201b60201c565b80600160006101000a81548173ffffffffffffffffffffffffffffffffffffffff021916908373ffffffffffffffffffffffffffffffffffffffff16021790555081600260006101000a81548173ffffffffffffffffffffffffffffffffffffffff021916908373ffffffffffffffffffffffffffffffffffffffff1602179055505050620002bc565b600033905090565b60008060009054906101000a900473ffffffffffffffffffffffffffffffffffffffff169050816000806101000a81548173ffffffffffffffffffffffffffffffffffffffff021916908373ffffffffffffffffffffffffffffffffffffffff1602179055508173ffffffffffffffffffffffffffffffffffffffff168173ffffffffffffffffffffffffffffffffffffffff167f8be0079c531659141344cd1fd0a4f28419497f9722a3daafe3b4186f6b6457e060405160405180910390a35050565b600080fd5b600073ffffffffffffffffffffffffffffffffffffffff82169050919050565b6000620001e482620001b7565b9050919050565b6000620001f882620001d7565b9050919050565b6200020a81620001eb565b81146200021657600080fd5b50565b6000815190506200022a81620001ff565b92915050565b60006200023d82620001d7565b9050919050565b6200024f8162000230565b81146200025b57600080fd5b50565b6000815190506200026f8162000244565b92915050565b600080604083850312156200028f576200028e620001b2565b5b60006200029f8582860162000219565b9250506020620002b2858286016200025e565b9150509250929050565b612be880620002cc6000396000f3fe608060405234801561001057600080fd5b50600436106100f55760003560e01c8063556f8084116100975780639e75689c116100665780639e75689c14610210578063f2fde38b1461022c578063f3c1338714610248578063fe8723e114610264576100f5565b8063556f8084146101ae578063715018a6146101ca5780637a53fde6146101d45780638da5cb5b146101f2576100f5565b80633ccfd60b116100d35780633ccfd60b146101625780633e3f23591461016c57806350baa622146101765780635164686914610192576100f5565b8063144fa6d7146100fa578063150b7a02146101165780632e5bb6ff14610146575b600080fd5b610114600480360381019061010f9190611bd7565b610280565b005b610130600480360381019061012b9190611ccb565b610303565b60405161013d9190611d8e565b60405180910390f35b610160600480360381019061015b9190611da9565b610331565b005b61016a61037a565b005b6101746103cb565b005b610190600480360381019061018b9190611da9565b610511565b005b6101ac60048036038101906101a79190611dd6565b61069b565b005b6101c860048036038101906101c39190611dd6565b6108a0565b005b6101d2610cef565b005b6101dc610d03565b6040516101e99190611f37565b60405180910390f35b6101fa610f67565b6040516102079190611f68565b60405180910390f35b61022a60048036038101906102259190611da9565b610f90565b005b61024660048036038101906102419190611f83565b61121f565b005b610262600480360381019061025d9190611fee565b6112a2565b005b61027e60048036038101906102799190611dd6565b611325565b005b6102886116be565b80600260006101000a81548173ffffffffffffffffffffffffffffffffffffffff021916908373ffffffffffffffffffffffffffffffffffffffff1602179055507fefc1fd16ea80a922086ee4e995739d59b025c1bcea6d1f67855747480c83214b816040516102f8919061207a565b60405180910390a150565b60007f150b7a023d4804d13e8c85fb27262cb750cf6ba9f9dd3bb30d90f482ceeb4b1f905095945050505050565b6103396116be565b806003819055507f9fa979502e438dac613eeda5e69bdaf59a326dc09969a480e1e19078b24e15d18160405161036f91906120a4565b60405180910390a150565b6103826116be565b3373ffffffffffffffffffffffffffffffffffffffff166108fc479081150290604051600060405180830381858888f193505050501580156103c8573d6000803e3d6000fd5b50565b6103d36116be565b600260009054906101000a900473ffffffffffffffffffffffffffffffffffffffff1673ffffffffffffffffffffffffffffffffffffffff1663a9059cbb33600260009054906101000a900473ffffffffffffffffffffffffffffffffffffffff1673ffffffffffffffffffffffffffffffffffffffff166370a08231306040518263ffffffff1660e01b815260040161046d9190611f68565b602060405180830381865afa15801561048a573d6000803e3d6000fd5b505050506040513d601f19601f820116820180604052508101906104ae91906120d4565b6040518363ffffffff1660e01b81526004016104cb929190612101565b6020604051808303816000875af11580156104ea573d6000803e3d6000fd5b505050506040513d601f19601f8201168201806040525081019061050e9190612162565b50565b6105196116be565b80600260009054906101000a900473ffffffffffffffffffffffffffffffffffffffff1673ffffffffffffffffffffffffffffffffffffffff166370a08231306040518263ffffffff1660e01b81526004016105759190611f68565b602060405180830381865afa158015610592573d6000803e3d6000fd5b505050506040513d601f19601f820116820180604052508101906105b691906120d4565b10156105f7576040517f08c379a00000000000000000000000000000000000000000000000000000000081526004016105ee906121ec565b60405180910390fd5b600260009054906101000a900473ffffffffffffffffffffffffffffffffffffffff1673ffffffffffffffffffffffffffffffffffffffff1663a9059cbb33836040518363ffffffff1660e01b8152600401610654929190612101565b6020604051808303816000875af1158015610673573d6000803e3d6000fd5b505050506040513d601f19601f820116820180604052508101906106979190612162565b5050565b3073ffffffffffffffffffffffffffffffffffffffff16600160009054906101000a900473ffffffffffffffffffffffffffffffffffffffff1673ffffffffffffffffffffffffffffffffffffffff16636352211e846040518263ffffffff1660e01b815260040161070d91906120a4565b602060405180830381865afa15801561072a573d6000803e3d6000fd5b505050506040513d601f19601f8201168201806040525081019061074e9190612221565b73ffffffffffffffffffffffffffffffffffffffff16146107a4576040517f08c379a000000000000000000000000000000000000000000000000000000000815260040161079b906122c0565b60405180910390fd5b3373ffffffffffffffffffffffffffffffffffffffff166004600084815260200190815260200160002060000160009054906101000a900473ffffffffffffffffffffffffffffffffffffffff1673ffffffffffffffffffffffffffffffffffffffff1614610848576040517f08c379a000000000000000000000000000000000000000000000000000000000815260040161083f90612352565b60405180910390fd5b8060046000848152602001908152602001600020600101819055507fc7113691cf96332a4c71d0e3d8fc13f177dc22111131519552cd24a04fde1e5c8282604051610894929190612372565b60405180910390a15050565b80600260009054906101000a900473ffffffffffffffffffffffffffffffffffffffff1673ffffffffffffffffffffffffffffffffffffffff166370a08231336040518263ffffffff1660e01b81526004016108fc9190611f68565b602060405180830381865afa158015610919573d6000803e3d6000fd5b505050506040513d601f19601f8201168201806040525081019061093d91906120d4565b101561097e576040517f08c379a0000000000000000000000000000000000000000000000000000000008152600401610975906121ec565b60405180910390fd5b3073ffffffffffffffffffffffffffffffffffffffff16600160009054906101000a900473ffffffffffffffffffffffffffffffffffffffff1673ffffffffffffffffffffffffffffffffffffffff16636352211e846040518263ffffffff1660e01b81526004016109f091906120a4565b602060405180830381865afa158015610a0d573d6000803e3d6000fd5b505050506040513d601f19601f82011682018060405250810190610a319190612221565b73ffffffffffffffffffffffffffffffffffffffff1614610a87576040517f08c379a0000000000000000000000000000000000000000000000000000000008152600401610a7e906122c0565b60405180910390fd5b8060046000848152602001908152602001600020600101541115610ae0576040517f08c379a0000000000000000000000000000000000000000000000000000000008152600401610ad79061240d565b60405180910390fd5b610b0e600260009054906101000a900473ffffffffffffffffffffffffffffffffffffffff1633308461173c565b600260009054906101000a900473ffffffffffffffffffffffffffffffffffffffff1673ffffffffffffffffffffffffffffffffffffffff1663a9059cbb6004600085815260200190815260200160002060000160009054906101000a900473ffffffffffffffffffffffffffffffffffffffff1660646003546064610b94919061245c565b85610b9f9190612490565b610ba99190612501565b6040518363ffffffff1660e01b8152600401610bc6929190612553565b6020604051808303816000875af1158015610be5573d6000803e3d6000fd5b505050506040513d601f19601f82011682018060405250810190610c099190612162565b50600160009054906101000a900473ffffffffffffffffffffffffffffffffffffffff1673ffffffffffffffffffffffffffffffffffffffff166342842e0e3033856040518463ffffffff1660e01b8152600401610c699392919061257c565b600060405180830381600087803b158015610c8357600080fd5b505af1158015610c97573d6000803e3d6000fd5b505050503373ffffffffffffffffffffffffffffffffffffffff167f5d963241241cfe9e161d13500d628058954b3febfde03e4b1f4071370e72fe2b8383604051610ce3929190612372565b60405180910390a25050565b610cf76116be565b610d0160006117c5565b565b60606000600160009054906101000a900473ffffffffffffffffffffffffffffffffffffffff1673ffffffffffffffffffffffffffffffffffffffff166370a08231306040518263ffffffff1660e01b8152600401610d629190611f68565b602060405180830381865afa158015610d7f573d6000803e3d6000fd5b505050506040513d601f19601f82011682018060405250810190610da391906120d4565b905060008167ffffffffffffffff811115610dc157610dc06125b3565b5b604051908082528060200260200182016040528015610dfa57816020015b610de7611b26565b815260200190600190039081610ddf5790505b50905060005b82811015610f5e5760046000600160009054906101000a900473ffffffffffffffffffffffffffffffffffffffff1673ffffffffffffffffffffffffffffffffffffffff16632f745c5930856040518363ffffffff1660e01b8152600401610e69929190612101565b602060405180830381865afa158015610e86573d6000803e3d6000fd5b505050506040513d601f19601f82011682018060405250810190610eaa91906120d4565b81526020019081526020016000206040518060600160405290816000820160009054906101000a900473ffffffffffffffffffffffffffffffffffffffff1673ffffffffffffffffffffffffffffffffffffffff1673ffffffffffffffffffffffffffffffffffffffff16815260200160018201548152602001600282015481525050828281518110610f4057610f3f6125e2565b5b60200260200101819052508080610f5690612611565b915050610e00565b50809250505090565b60008060009054906101000a900473ffffffffffffffffffffffffffffffffffffffff16905090565b3073ffffffffffffffffffffffffffffffffffffffff16600160009054906101000a900473ffffffffffffffffffffffffffffffffffffffff1673ffffffffffffffffffffffffffffffffffffffff16636352211e836040518263ffffffff1660e01b815260040161100291906120a4565b602060405180830381865afa15801561101f573d6000803e3d6000fd5b505050506040513d601f19601f820116820180604052508101906110439190612221565b73ffffffffffffffffffffffffffffffffffffffff1614611099576040517f08c379a0000000000000000000000000000000000000000000000000000000008152600401611090906122c0565b60405180910390fd5b3373ffffffffffffffffffffffffffffffffffffffff166004600083815260200190815260200160002060000160009054906101000a900473ffffffffffffffffffffffffffffffffffffffff1673ffffffffffffffffffffffffffffffffffffffff161461113d576040517f08c379a0000000000000000000000000000000000000000000000000000000008152600401611134906126a5565b60405180910390fd5b600160009054906101000a900473ffffffffffffffffffffffffffffffffffffffff1673ffffffffffffffffffffffffffffffffffffffff166342842e0e3033846040518463ffffffff1660e01b815260040161119c9392919061257c565b600060405180830381600087803b1580156111b657600080fd5b505af11580156111ca573d6000803e3d6000fd5b505050503373ffffffffffffffffffffffffffffffffffffffff167f995270fd4f93cea033cdf0da430f296d82414eb9a7d99b6b391bb3e8a1ee9fc28260405161121491906120a4565b60405180910390a250565b6112276116be565b600073ffffffffffffffffffffffffffffffffffffffff168173ffffffffffffffffffffffffffffffffffffffff1603611296576040517f08c379a000000000000000000000000000000000000000000000000000000000815260040161128d90612737565b60405180910390fd5b61129f816117c5565b50565b6112aa6116be565b80600160006101000a81548173ffffffffffffffffffffffffffffffffffffffff021916908373ffffffffffffffffffffffffffffffffffffffff1602179055507ff8525b9383ba5cc1b196c9a879bcbe7911913876aaff159ec424e1bb6136fff28160405161131a9190612778565b60405180910390a150565b3373ffffffffffffffffffffffffffffffffffffffff16600160009054906101000a900473ffffffffffffffffffffffffffffffffffffffff1673ffffffffffffffffffffffffffffffffffffffff16636352211e846040518263ffffffff1660e01b815260040161139791906120a4565b602060405180830381865afa1580156113b4573d6000803e3d6000fd5b505050506040513d601f19601f820116820180604052508101906113d89190612221565b73ffffffffffffffffffffffffffffffffffffffff161461142e576040517f08c379a000000000000000000000000000000000000000000000000000000000815260040161142590612805565b60405180910390fd5b3073ffffffffffffffffffffffffffffffffffffffff16600160009054906101000a900473ffffffffffffffffffffffffffffffffffffffff1673ffffffffffffffffffffffffffffffffffffffff1663081812fc846040518263ffffffff1660e01b81526004016114a091906120a4565b602060405180830381865afa1580156114bd573d6000803e3d6000fd5b505050506040513d601f19601f820116820180604052508101906114e19190612221565b73ffffffffffffffffffffffffffffffffffffffff1614611537576040517f08c379a000000000000000000000000000000000000000000000000000000000815260040161152e90612897565b60405180910390fd5b60405180606001604052803373ffffffffffffffffffffffffffffffffffffffff168152602001828152602001838152506004600084815260200190815260200160002060008201518160000160006101000a81548173ffffffffffffffffffffffffffffffffffffffff021916908373ffffffffffffffffffffffffffffffffffffffff1602179055506020820151816001015560408201518160020155905050600160009054906101000a900473ffffffffffffffffffffffffffffffffffffffff1673ffffffffffffffffffffffffffffffffffffffff166342842e0e3330856040518463ffffffff1660e01b81526004016116389392919061257c565b600060405180830381600087803b15801561165257600080fd5b505af1158015611666573d6000803e3d6000fd5b505050503373ffffffffffffffffffffffffffffffffffffffff167f6cd52e2afd4c9fdb90f6226975fb688c697f05f2c4306f5bff7ea8cd941ed7ce83836040516116b2929190612372565b60405180910390a25050565b6116c6611889565b73ffffffffffffffffffffffffffffffffffffffff166116e4610f67565b73ffffffffffffffffffffffffffffffffffffffff161461173a576040517f08c379a000000000000000000000000000000000000000000000000000000000815260040161173190612903565b60405180910390fd5b565b6117bf846323b872dd60e01b85858560405160240161175d9392919061257c565b604051602081830303815290604052907bffffffffffffffffffffffffffffffffffffffffffffffffffffffff19166020820180517bffffffffffffffffffffffffffffffffffffffffffffffffffffffff8381831617835250505050611891565b50505050565b60008060009054906101000a900473ffffffffffffffffffffffffffffffffffffffff169050816000806101000a81548173ffffffffffffffffffffffffffffffffffffffff021916908373ffffffffffffffffffffffffffffffffffffffff1602179055508173ffffffffffffffffffffffffffffffffffffffff168173ffffffffffffffffffffffffffffffffffffffff167f8be0079c531659141344cd1fd0a4f28419497f9722a3daafe3b4186f6b6457e060405160405180910390a35050565b600033905090565b60006118f3826040518060400160405280602081526020017f5361666545524332303a206c6f772d6c6576656c2063616c6c206661696c65648152508573ffffffffffffffffffffffffffffffffffffffff166119599092919063ffffffff16565b90506000815114806119155750808060200190518101906119149190612162565b5b611954576040517f08c379a000000000000000000000000000000000000000000000000000000000815260040161194b90612995565b60405180910390fd5b505050565b60606119688484600085611971565b90509392505050565b6060824710156119b6576040517f08c379a00000000000000000000000000000000000000000000000000000000081526004016119ad90612a27565b60405180910390fd5b6000808673ffffffffffffffffffffffffffffffffffffffff1685876040516119df9190612ab8565b60006040518083038185875af1925050503d8060008114611a1c576040519150601f19603f3d011682016040523d82523d6000602084013e611a21565b606091505b5091509150611a3287838387611a3e565b92505050949350505050565b60608315611aa0576000835103611a9857611a5885611ab3565b611a97576040517f08c379a0000000000000000000000000000000000000000000000000000000008152600401611a8e90612b1b565b60405180910390fd5b5b829050611aab565b611aaa8383611ad6565b5b949350505050565b6000808273ffffffffffffffffffffffffffffffffffffffff163b119050919050565b600082511115611ae95781518083602001fd5b806040517f08c379a0000000000000000000000000000000000000000000000000000000008152600401611b1d9190612b90565b60405180910390fd5b6040518060600160405280600073ffffffffffffffffffffffffffffffffffffffff16815260200160008152602001600081525090565b600080fd5b600080fd5b600073ffffffffffffffffffffffffffffffffffffffff82169050919050565b6000611b9282611b67565b9050919050565b6000611ba482611b87565b9050919050565b611bb481611b99565b8114611bbf57600080fd5b50565b600081359050611bd181611bab565b92915050565b600060208284031215611bed57611bec611b5d565b5b6000611bfb84828501611bc2565b91505092915050565b611c0d81611b87565b8114611c1857600080fd5b50565b600081359050611c2a81611c04565b92915050565b6000819050919050565b611c4381611c30565b8114611c4e57600080fd5b50565b600081359050611c6081611c3a565b92915050565b600080fd5b600080fd5b600080fd5b60008083601f840112611c8b57611c8a611c66565b5b8235905067ffffffffffffffff811115611ca857611ca7611c6b565b5b602083019150836001820283011115611cc457611cc3611c70565b5b9250929050565b600080600080600060808688031215611ce757611ce6611b5d565b5b6000611cf588828901611c1b565b9550506020611d0688828901611c1b565b9450506040611d1788828901611c51565b935050606086013567ffffffffffffffff811115611d3857611d37611b62565b5b611d4488828901611c75565b92509250509295509295909350565b60007fffffffff0000000000000000000000000000000000000000000000000000000082169050919050565b611d8881611d53565b82525050565b6000602082019050611da36000830184611d7f565b92915050565b600060208284031215611dbf57611dbe611b5d565b5b6000611dcd84828501611c51565b91505092915050565b60008060408385031215611ded57611dec611b5d565b5b6000611dfb85828601611c51565b9250506020611e0c85828601611c51565b9150509250929050565b600081519050919050565b600082825260208201905092915050565b6000819050602082019050919050565b6000611e4d82611b67565b9050919050565b611e5d81611e42565b82525050565b611e6c81611c30565b82525050565b606082016000820151611e886000850182611e54565b506020820151611e9b6020850182611e63565b506040820151611eae6040850182611e63565b50505050565b6000611ec08383611e72565b60608301905092915050565b6000602082019050919050565b6000611ee482611e16565b611eee8185611e21565b9350611ef983611e32565b8060005b83811015611f2a578151611f118882611eb4565b9750611f1c83611ecc565b925050600181019050611efd565b5085935050505092915050565b60006020820190508181036000830152611f518184611ed9565b905092915050565b611f6281611b87565b82525050565b6000602082019050611f7d6000830184611f59565b92915050565b600060208284031215611f9957611f98611b5d565b5b6000611fa784828501611c1b565b91505092915050565b6000611fbb82611b87565b9050919050565b611fcb81611fb0565b8114611fd657600080fd5b50565b600081359050611fe881611fc2565b92915050565b60006020828403121561200457612003611b5d565b5b600061201284828501611fd9565b91505092915050565b6000819050919050565b600061204061203b61203684611b67565b61201b565b611b67565b9050919050565b600061205282612025565b9050919050565b600061206482612047565b9050919050565b61207481612059565b82525050565b600060208201905061208f600083018461206b565b92915050565b61209e81611c30565b82525050565b60006020820190506120b96000830184612095565b92915050565b6000815190506120ce81611c3a565b92915050565b6000602082840312156120ea576120e9611b5d565b5b60006120f8848285016120bf565b91505092915050565b60006040820190506121166000830185611f59565b6121236020830184612095565b9392505050565b60008115159050919050565b61213f8161212a565b811461214a57600080fd5b50565b60008151905061215c81612136565b92915050565b60006020828403121561217857612177611b5d565b5b60006121868482850161214d565b91505092915050565b600082825260208201905092915050565b7f496e73756666696369656e74206163636f756e742062616c616e636500000000600082015250565b60006121d6601c8361218f565b91506121e1826121a0565b602082019050919050565b60006020820190508181036000830152612205816121c9565b9050919050565b60008151905061221b81611c04565b92915050565b60006020828403121561223757612236611b5d565b5b60006122458482850161220c565b91505092915050565b7f54686973204e465420646f65736e2774206578697374206f6e206d61726b657460008201527f706c616365000000000000000000000000000000000000000000000000000000602082015250565b60006122aa60258361218f565b91506122b58261224e565b604082019050919050565b600060208201905081810360008301526122d98161229d565b9050919050565b7f4f6e6c79206f776e65722063616e20757064617465207072696365206f66207460008201527f686973204e465400000000000000000000000000000000000000000000000000602082015250565b600061233c60278361218f565b9150612347826122e0565b604082019050919050565b6000602082019050818103600083015261236b8161232f565b9050919050565b60006040820190506123876000830185612095565b6123946020830184612095565b9392505050565b7f4d696e696d756d20707269636520686173206e6f74206265656e20726561636860008201527f6564000000000000000000000000000000000000000000000000000000000000602082015250565b60006123f760228361218f565b91506124028261239b565b604082019050919050565b60006020820190508181036000830152612426816123ea565b9050919050565b7f4e487b7100000000000000000000000000000000000000000000000000000000600052601160045260246000fd5b600061246782611c30565b915061247283611c30565b925082820390508181111561248a5761248961242d565b5b92915050565b600061249b82611c30565b91506124a683611c30565b92508282026124b481611c30565b915082820484148315176124cb576124ca61242d565b5b5092915050565b7f4e487b7100000000000000000000000000000000000000000000000000000000600052601260045260246000fd5b600061250c82611c30565b915061251783611c30565b925082612527576125266124d2565b5b828204905092915050565b600061253d82612047565b9050919050565b61254d81612532565b82525050565b60006040820190506125686000830185612544565b6125756020830184612095565b9392505050565b60006060820190506125916000830186611f59565b61259e6020830185611f59565b6125ab6040830184612095565b949350505050565b7f4e487b7100000000000000000000000000000000000000000000000000000000600052604160045260246000fd5b7f4e487b7100000000000000000000000000000000000000000000000000000000600052603260045260246000fd5b600061261c82611c30565b91507fffffffffffffffffffffffffffffffffffffffffffffffffffffffffffffffff820361264e5761264d61242d565b5b600182019050919050565b7f4f6e6c79206f776e65722063616e20756e6c6973742074686973204e46540000600082015250565b600061268f601e8361218f565b915061269a82612659565b602082019050919050565b600060208201905081810360008301526126be81612682565b9050919050565b7f4f776e61626c653a206e6577206f776e657220697320746865207a65726f206160008201527f6464726573730000000000000000000000000000000000000000000000000000602082015250565b600061272160268361218f565b915061272c826126c5565b604082019050919050565b6000602082019050818103600083015261275081612714565b9050919050565b600061276282612047565b9050919050565b61277281612757565b82525050565b600060208201905061278d6000830184612769565b92915050565b7f596f7520617265206e6f7420746865206f776e6572206f662074686973204e4660008201527f5400000000000000000000000000000000000000000000000000000000000000602082015250565b60006127ef60218361218f565b91506127fa82612793565b604082019050919050565b6000602082019050818103600083015261281e816127e2565b9050919050565b7f4d61726b6574706c616365206973206e6f7420617070726f76656420746f207460008201527f72616e736665722074686973204e465400000000000000000000000000000000602082015250565b600061288160308361218f565b915061288c82612825565b604082019050919050565b600060208201905081810360008301526128b081612874565b9050919050565b7f4f776e61626c653a2063616c6c6572206973206e6f7420746865206f776e6572600082015250565b60006128ed60208361218f565b91506128f8826128b7565b602082019050919050565b6000602082019050818103600083015261291c816128e0565b9050919050565b7f5361666545524332303a204552433230206f7065726174696f6e20646964206e60008201527f6f74207375636365656400000000000000000000000000000000000000000000602082015250565b600061297f602a8361218f565b915061298a82612923565b604082019050919050565b600060208201905081810360008301526129ae81612972565b9050919050565b7f416464726573733a20696e73756666696369656e742062616c616e636520666f60008201527f722063616c6c0000000000000000000000000000000000000000000000000000602082015250565b6000612a1160268361218f565b9150612a1c826129b5565b604082019050919050565b60006020820190508181036000830152612a4081612a04565b9050919050565b600081519050919050565b600081905092915050565b60005b83811015612a7b578082015181840152602081019050612a60565b60008484015250505050565b6000612a9282612a47565b612a9c8185612a52565b9350612aac818560208601612a5d565b80840191505092915050565b6000612ac48284612a87565b915081905092915050565b7f416464726573733a2063616c6c20746f206e6f6e2d636f6e7472616374000000600082015250565b6000612b05601d8361218f565b9150612b1082612acf565b602082019050919050565b60006020820190508181036000830152612b3481612af8565b9050919050565b600081519050919050565b6000601f19601f8301169050919050565b6000612b6282612b3b565b612b6c818561218f565b9350612b7c818560208601612a5d565b612b8581612b46565b840191505092915050565b60006020820190508181036000830152612baa8184612b57565b90509291505056fea264697066735822122073b1ca93b3cdcff555559a2e0782f79ee3245993b0710b9aa76209977535f3c864736f6c63430008140033",
  "linkReferences": {},
  "deployedLinkReferences": {}
}