{
  "_format": "hh-sol-artifact-1",
  "contractName": "Vault",
  "sourceName": "contracts/Vault.sol",
  "abi": [
    {
      "inputs": [],
      "stateMutability": "nonpayable",
      "type": "constructor"
    },
    {
      "anonymous": false,
      "inputs": [
        {
          "indexed": true,
          "internalType": "address",
          "name": "previousOwner",
          "type": "address"
        },
        {
          "indexed": true,
          "internalType": "address",
          "name": "newOwner",
          "type": "address"
        }
      ],
      "name": "OwnershipTransferred",
      "type": "event"
    },
    {
      "anonymous": false,
      "inputs": [
        {
          "indexed": true,
          "internalType": "bytes32",
          "name": "role",
          "type": "bytes32"
        },
        {
          "indexed": true,
          "internalType": "bytes32",
          "name": "previousAdminRole",
          "type": "bytes32"
        },
        {
          "indexed": true,
          "internalType": "bytes32",
          "name": "newAdminRole",
          "type": "bytes32"
        }
      ],
      "name": "RoleAdminChanged",
      "type": "event"
    },
    {
      "anonymous": false,
      "inputs": [
        {
          "indexed": true,
          "internalType": "bytes32",
          "name": "role",
          "type": "bytes32"
        },
        {
          "indexed": true,
          "internalType": "address",
          "name": "account",
          "type": "address"
        },
        {
          "indexed": true,
          "internalType": "address",
          "name": "sender",
          "type": "address"
        }
      ],
      "name": "RoleGranted",
      "type": "event"
    },
    {
      "anonymous": false,
      "inputs": [
        {
          "indexed": true,
          "internalType": "bytes32",
          "name": "role",
          "type": "bytes32"
        },
        {
          "indexed": true,
          "internalType": "address",
          "name": "account",
          "type": "address"
        },
        {
          "indexed": true,
          "internalType": "address",
          "name": "sender",
          "type": "address"
        }
      ],
      "name": "RoleRevoked",
      "type": "event"
    },
    {
      "inputs": [],
      "name": "DEFAULT_ADMIN_ROLE",
      "outputs": [
        {
          "internalType": "bytes32",
          "name": "",
          "type": "bytes32"
        }
      ],
      "stateMutability": "view",
      "type": "function"
    },
    {
      "inputs": [],
      "name": "WITHDRAWER_ROLE",
      "outputs": [
        {
          "internalType": "bytes32",
          "name": "",
          "type": "bytes32"
        }
      ],
      "stateMutability": "view",
      "type": "function"
    },
    {
      "inputs": [
        {
          "internalType": "uint256",
          "name": "_amount",
          "type": "uint256"
        }
      ],
      "name": "deposit",
      "outputs": [],
      "stateMutability": "nonpayable",
      "type": "function"
    },
    {
      "inputs": [
        {
          "internalType": "bytes32",
          "name": "role",
          "type": "bytes32"
        }
      ],
      "name": "getRoleAdmin",
      "outputs": [
        {
          "internalType": "bytes32",
          "name": "",
          "type": "bytes32"
        }
      ],
      "stateMutability": "view",
      "type": "function"
    },
    {
      "inputs": [
        {
          "internalType": "bytes32",
          "name": "role",
          "type": "bytes32"
        },
        {
          "internalType": "uint256",
          "name": "index",
          "type": "uint256"
        }
      ],
      "name": "getRoleMember",
      "outputs": [
        {
          "internalType": "address",
          "name": "",
          "type": "address"
        }
      ],
      "stateMutability": "view",
      "type": "function"
    },
    {
      "inputs": [
        {
          "internalType": "bytes32",
          "name": "role",
          "type": "bytes32"
        }
      ],
      "name": "getRoleMemberCount",
      "outputs": [
        {
          "internalType": "uint256",
          "name": "",
          "type": "uint256"
        }
      ],
      "stateMutability": "view",
      "type": "function"
    },
    {
      "inputs": [
        {
          "internalType": "bytes32",
          "name": "role",
          "type": "bytes32"
        },
        {
          "internalType": "address",
          "name": "account",
          "type": "address"
        }
      ],
      "name": "grantRole",
      "outputs": [],
      "stateMutability": "nonpayable",
      "type": "function"
    },
    {
      "inputs": [
        {
          "internalType": "bytes32",
          "name": "role",
          "type": "bytes32"
        },
        {
          "internalType": "address",
          "name": "account",
          "type": "address"
        }
      ],
      "name": "hasRole",
      "outputs": [
        {
          "internalType": "bool",
          "name": "",
          "type": "bool"
        }
      ],
      "stateMutability": "view",
      "type": "function"
    },
    {
      "inputs": [],
      "name": "maxWithdrawAmount",
      "outputs": [
        {
          "internalType": "uint256",
          "name": "",
          "type": "uint256"
        }
      ],
      "stateMutability": "view",
      "type": "function"
    },
    {
      "inputs": [],
      "name": "owner",
      "outputs": [
        {
          "internalType": "address",
          "name": "",
          "type": "address"
        }
      ],
      "stateMutability": "view",
      "type": "function"
    },
    {
      "inputs": [],
      "name": "renounceOwnership",
      "outputs": [],
      "stateMutability": "nonpayable",
      "type": "function"
    },
    {
      "inputs": [
        {
          "internalType": "bytes32",
          "name": "role",
          "type": "bytes32"
        },
        {
          "internalType": "address",
          "name": "account",
          "type": "address"
        }
      ],
      "name": "renounceRole",
      "outputs": [],
      "stateMutability": "nonpayable",
      "type": "function"
    },
    {
      "inputs": [
        {
          "internalType": "bytes32",
          "name": "role",
          "type": "bytes32"
        },
        {
          "internalType": "address",
          "name": "account",
          "type": "address"
        }
      ],
      "name": "revokeRole",
      "outputs": [],
      "stateMutability": "nonpayable",
      "type": "function"
    },
    {
      "inputs": [
        {
          "internalType": "uint256",
          "name": "_maxAmount",
          "type": "uint256"
        }
      ],
      "name": "setMaxWithdrawAmount",
      "outputs": [],
      "stateMutability": "nonpayable",
      "type": "function"
    },
    {
      "inputs": [
        {
          "internalType": "contract IERC20",
          "name": "_token",
          "type": "address"
        }
      ],
      "name": "setToken",
      "outputs": [],
      "stateMutability": "nonpayable",
      "type": "function"
    },
    {
      "inputs": [
        {
          "internalType": "bool",
          "name": "_isEnable",
          "type": "bool"
        }
      ],
      "name": "setWithdrawEnable",
      "outputs": [],
      "stateMutability": "nonpayable",
      "type": "function"
    },
    {
      "inputs": [
        {
          "internalType": "bytes4",
          "name": "interfaceId",
          "type": "bytes4"
        }
      ],
      "name": "supportsInterface",
      "outputs": [
        {
          "internalType": "bool",
          "name": "",
          "type": "bool"
        }
      ],
      "stateMutability": "view",
      "type": "function"
    },
    {
      "inputs": [
        {
          "internalType": "address",
          "name": "newOwner",
          "type": "address"
        }
      ],
      "name": "transferOwnership",
      "outputs": [],
      "stateMutability": "nonpayable",
      "type": "function"
    },
    {
      "inputs": [
        {
          "internalType": "uint256",
          "name": "_amount",
          "type": "uint256"
        },
        {
          "internalType": "address",
          "name": "_to",
          "type": "address"
        }
      ],
      "name": "withdraw",
      "outputs": [],
      "stateMutability": "nonpayable",
      "type": "function"
    },
    {
      "inputs": [],
      "name": "withdrawEnable",
      "outputs": [
        {
          "internalType": "bool",
          "name": "",
          "type": "bool"
        }
      ],
      "stateMutability": "view",
      "type": "function"
    }
  ],
  "bytecode": "0x60806040523480156200001157600080fd5b5062000032620000266200005c60201b60201c565b6200006460201b60201c565b620000566000801b6200004a6200005c60201b60201c565b6200012860201b60201c565b62000397565b600033905090565b60008060009054906101000a900473ffffffffffffffffffffffffffffffffffffffff169050816000806101000a81548173ffffffffffffffffffffffffffffffffffffffff021916908373ffffffffffffffffffffffffffffffffffffffff1602179055508173ffffffffffffffffffffffffffffffffffffffff168173ffffffffffffffffffffffffffffffffffffffff167f8be0079c531659141344cd1fd0a4f28419497f9722a3daafe3b4186f6b6457e060405160405180910390a35050565b6200013a82826200016660201b60201c565b6200016181600260008581526020019081526020016000206200025760201b90919060201c565b505050565b6200017882826200028f60201b60201c565b6200025357600180600084815260200190815260200160002060000160008373ffffffffffffffffffffffffffffffffffffffff1673ffffffffffffffffffffffffffffffffffffffff16815260200190815260200160002060006101000a81548160ff021916908315150217905550620001f86200005c60201b60201c565b73ffffffffffffffffffffffffffffffffffffffff168173ffffffffffffffffffffffffffffffffffffffff16837f2f8788117e7eff1d82e926ec794901d17c78024a50270940304540a733656f0d60405160405180910390a45b5050565b600062000287836000018373ffffffffffffffffffffffffffffffffffffffff1660001b620002fa60201b60201c565b905092915050565b60006001600084815260200190815260200160002060000160008373ffffffffffffffffffffffffffffffffffffffff1673ffffffffffffffffffffffffffffffffffffffff16815260200190815260200160002060009054906101000a900460ff16905092915050565b60006200030e83836200037460201b60201c565b620003695782600001829080600181540180825580915050600190039060005260206000200160009091909190915055826000018054905083600101600084815260200190815260200160002081905550600190506200036e565b600090505b92915050565b600080836001016000848152602001908152602001600020541415905092915050565b61255c80620003a76000396000f3fe608060405234801561001057600080fd5b506004361061012b5760003560e01c80639010d07c116100ad578063ca15c87311610071578063ca15c8731461031a578063d547741f1461034a578063df74e02814610366578063f2fde38b14610382578063f516440c1461039e5761012b565b80639010d07c1461026257806391d1485414610292578063a217fddf146102c2578063b5b68afe146102e0578063b6b55f25146102fe5761012b565b806336568abe116100f457806336568abe146101e4578063715018a614610200578063827a560b1461020a57806385f438c1146102265780638da5cb5b146102445761012b565b8062f714ce1461013057806301ffc9a71461014c578063144fa6d71461017c578063248a9ca3146101985780632f2ff15d146101c8575b600080fd5b61014a600480360381019061014591906117df565b6103bc565b005b61016660048036038101906101619190611877565b6105a9565b60405161017391906118bf565b60405180910390f35b61019660048036038101906101919190611918565b610623565b005b6101b260048036038101906101ad919061197b565b61066f565b6040516101bf91906119b7565b60405180910390f35b6101e260048036038101906101dd91906119d2565b61068f565b005b6101fe60048036038101906101f991906119d2565b6106b0565b005b610208610733565b005b610224600480360381019061021f9190611a3e565b610747565b005b61022e61076c565b60405161023b91906119b7565b60405180910390f35b61024c610790565b6040516102599190611a7a565b60405180910390f35b61027c60048036038101906102779190611a95565b6107b9565b6040516102899190611a7a565b60405180910390f35b6102ac60048036038101906102a791906119d2565b6107e8565b6040516102b991906118bf565b60405180910390f35b6102ca610853565b6040516102d791906119b7565b60405180910390f35b6102e861085a565b6040516102f591906118bf565b60405180910390f35b61031860048036038101906103139190611ad5565b61086d565b005b610334600480360381019061032f919061197b565b61097c565b6040516103419190611b11565b60405180910390f35b610364600480360381019061035f91906119d2565b6109a0565b005b610380600480360381019061037b9190611ad5565b6109c1565b005b61039c60048036038101906103979190611b2c565b6109d3565b005b6103a6610a56565b6040516103b39190611b11565b60405180910390f35b6103c4610a5c565b73ffffffffffffffffffffffffffffffffffffffff166103e2610790565b73ffffffffffffffffffffffffffffffffffffffff16148061043157506104307f10dac8c06a04bec0b551627dad28bc00d6516b0caacd1c7b345fcdb5211334e461042b610a5c565b6107e8565b5b610470576040517f08c379a000000000000000000000000000000000000000000000000000000000815260040161046790611bb6565b60405180910390fd5b600560009054906101000a900460ff166104bf576040517f08c379a00000000000000000000000000000000000000000000000000000000081526004016104b690611c22565b60405180910390fd5b600454821115610504576040517f08c379a00000000000000000000000000000000000000000000000000000000081526004016104fb90611c8e565b60405180910390fd5b600360009054906101000a900473ffffffffffffffffffffffffffffffffffffffff1673ffffffffffffffffffffffffffffffffffffffff1663a9059cbb82846040518363ffffffff1660e01b8152600401610561929190611cae565b6020604051808303816000875af1158015610580573d6000803e3d6000fd5b505050506040513d601f19601f820116820180604052508101906105a49190611cec565b505050565b60007f5a05180f000000000000000000000000000000000000000000000000000000007bffffffffffffffffffffffffffffffffffffffffffffffffffffffff1916827bffffffffffffffffffffffffffffffffffffffffffffffffffffffff1916148061061c575061061b82610a64565b5b9050919050565b61062b610ade565b80600360006101000a81548173ffffffffffffffffffffffffffffffffffffffff021916908373ffffffffffffffffffffffffffffffffffffffff16021790555050565b600060016000838152602001908152602001600020600101549050919050565b6106988261066f565b6106a181610b5c565b6106ab8383610b70565b505050565b6106b8610a5c565b73ffffffffffffffffffffffffffffffffffffffff168173ffffffffffffffffffffffffffffffffffffffff1614610725576040517f08c379a000000000000000000000000000000000000000000000000000000000815260040161071c90611d8b565b60405180910390fd5b61072f8282610ba4565b5050565b61073b610ade565b6107456000610bd8565b565b61074f610ade565b80600560006101000a81548160ff02191690831515021790555050565b7f10dac8c06a04bec0b551627dad28bc00d6516b0caacd1c7b345fcdb5211334e481565b60008060009054906101000a900473ffffffffffffffffffffffffffffffffffffffff16905090565b60006107e08260026000868152602001908152602001600020610c9c90919063ffffffff16565b905092915050565b60006001600084815260200190815260200160002060000160008373ffffffffffffffffffffffffffffffffffffffff1673ffffffffffffffffffffffffffffffffffffffff16815260200190815260200160002060009054906101000a900460ff16905092915050565b6000801b81565b600560009054906101000a900460ff1681565b80600360009054906101000a900473ffffffffffffffffffffffffffffffffffffffff1673ffffffffffffffffffffffffffffffffffffffff166370a08231336040518263ffffffff1660e01b81526004016108c99190611a7a565b602060405180830381865afa1580156108e6573d6000803e3d6000fd5b505050506040513d601f19601f8201168201806040525081019061090a9190611dc0565b101561094b576040517f08c379a000000000000000000000000000000000000000000000000000000000815260040161094290611e39565b60405180910390fd5b610979600360009054906101000a900473ffffffffffffffffffffffffffffffffffffffff16333084610cb6565b50565b600061099960026000848152602001908152602001600020610d3f565b9050919050565b6109a98261066f565b6109b281610b5c565b6109bc8383610ba4565b505050565b6109c9610ade565b8060048190555050565b6109db610ade565b600073ffffffffffffffffffffffffffffffffffffffff168173ffffffffffffffffffffffffffffffffffffffff1603610a4a576040517f08c379a0000000000000000000000000000000000000000000000000000000008152600401610a4190611ecb565b60405180910390fd5b610a5381610bd8565b50565b60045481565b600033905090565b60007f7965db0b000000000000000000000000000000000000000000000000000000007bffffffffffffffffffffffffffffffffffffffffffffffffffffffff1916827bffffffffffffffffffffffffffffffffffffffffffffffffffffffff19161480610ad75750610ad682610d54565b5b9050919050565b610ae6610a5c565b73ffffffffffffffffffffffffffffffffffffffff16610b04610790565b73ffffffffffffffffffffffffffffffffffffffff1614610b5a576040517f08c379a0000000000000000000000000000000000000000000000000000000008152600401610b5190611f37565b60405180910390fd5b565b610b6d81610b68610a5c565b610dbe565b50565b610b7a8282610e43565b610b9f8160026000858152602001908152602001600020610f2390919063ffffffff16565b505050565b610bae8282610f53565b610bd3816002600085815260200190815260200160002061103590919063ffffffff16565b505050565b60008060009054906101000a900473ffffffffffffffffffffffffffffffffffffffff169050816000806101000a81548173ffffffffffffffffffffffffffffffffffffffff021916908373ffffffffffffffffffffffffffffffffffffffff1602179055508173ffffffffffffffffffffffffffffffffffffffff168173ffffffffffffffffffffffffffffffffffffffff167f8be0079c531659141344cd1fd0a4f28419497f9722a3daafe3b4186f6b6457e060405160405180910390a35050565b6000610cab8360000183611065565b60001c905092915050565b610d39846323b872dd60e01b858585604051602401610cd793929190611f57565b604051602081830303815290604052907bffffffffffffffffffffffffffffffffffffffffffffffffffffffff19166020820180517bffffffffffffffffffffffffffffffffffffffffffffffffffffffff8381831617835250505050611090565b50505050565b6000610d4d82600001611158565b9050919050565b60007f01ffc9a7000000000000000000000000000000000000000000000000000000007bffffffffffffffffffffffffffffffffffffffffffffffffffffffff1916827bffffffffffffffffffffffffffffffffffffffffffffffffffffffff1916149050919050565b610dc882826107e8565b610e3f57610dd581611169565b610de38360001c6020611196565b604051602001610df4929190612097565b6040516020818303038152906040526040517f08c379a0000000000000000000000000000000000000000000000000000000008152600401610e36919061211b565b60405180910390fd5b5050565b610e4d82826107e8565b610f1f57600180600084815260200190815260200160002060000160008373ffffffffffffffffffffffffffffffffffffffff1673ffffffffffffffffffffffffffffffffffffffff16815260200190815260200160002060006101000a81548160ff021916908315150217905550610ec4610a5c565b73ffffffffffffffffffffffffffffffffffffffff168173ffffffffffffffffffffffffffffffffffffffff16837f2f8788117e7eff1d82e926ec794901d17c78024a50270940304540a733656f0d60405160405180910390a45b5050565b6000610f4b836000018373ffffffffffffffffffffffffffffffffffffffff1660001b6113d2565b905092915050565b610f5d82826107e8565b156110315760006001600084815260200190815260200160002060000160008373ffffffffffffffffffffffffffffffffffffffff1673ffffffffffffffffffffffffffffffffffffffff16815260200190815260200160002060006101000a81548160ff021916908315150217905550610fd6610a5c565b73ffffffffffffffffffffffffffffffffffffffff168173ffffffffffffffffffffffffffffffffffffffff16837ff6391f5c32d9c69d2a47ea670b442974b53935d1edc7fd64eb21e047a839171b60405160405180910390a45b5050565b600061105d836000018373ffffffffffffffffffffffffffffffffffffffff1660001b611442565b905092915050565b600082600001828154811061107d5761107c61213d565b5b9060005260206000200154905092915050565b60006110f2826040518060400160405280602081526020017f5361666545524332303a206c6f772d6c6576656c2063616c6c206661696c65648152508573ffffffffffffffffffffffffffffffffffffffff166115569092919063ffffffff16565b90506000815114806111145750808060200190518101906111139190611cec565b5b611153576040517f08c379a000000000000000000000000000000000000000000000000000000000815260040161114a906121de565b60405180910390fd5b505050565b600081600001805490509050919050565b606061118f8273ffffffffffffffffffffffffffffffffffffffff16601460ff16611196565b9050919050565b6060600060028360026111a9919061222d565b6111b3919061226f565b67ffffffffffffffff8111156111cc576111cb6122a3565b5b6040519080825280601f01601f1916602001820160405280156111fe5781602001600182028036833780820191505090505b5090507f3000000000000000000000000000000000000000000000000000000000000000816000815181106112365761123561213d565b5b60200101907effffffffffffffffffffffffffffffffffffffffffffffffffffffffffffff1916908160001a9053507f78000000000000000000000000000000000000000000000000000000000000008160018151811061129a5761129961213d565b5b60200101907effffffffffffffffffffffffffffffffffffffffffffffffffffffffffffff1916908160001a905350600060018460026112da919061222d565b6112e4919061226f565b90505b6001811115611384577f3031323334353637383961626364656600000000000000000000000000000000600f8616601081106113265761132561213d565b5b1a60f81b82828151811061133d5761133c61213d565b5b60200101907effffffffffffffffffffffffffffffffffffffffffffffffffffffffffffff1916908160001a905350600485901c94508061137d906122d2565b90506112e7565b50600084146113c8576040517f08c379a00000000000000000000000000000000000000000000000000000000081526004016113bf90612347565b60405180910390fd5b8091505092915050565b60006113de838361156e565b61143757826000018290806001815401808255809150506001900390600052602060002001600090919091909150558260000180549050836001016000848152602001908152602001600020819055506001905061143c565b600090505b92915050565b6000808360010160008481526020019081526020016000205490506000811461154a5760006001826114749190612367565b905060006001866000018054905061148c9190612367565b90508181146114fb5760008660000182815481106114ad576114ac61213d565b5b90600052602060002001549050808760000184815481106114d1576114d061213d565b5b90600052602060002001819055508387600101600083815260200190815260200160002081905550505b8560000180548061150f5761150e61239b565b5b600190038181906000526020600020016000905590558560010160008681526020019081526020016000206000905560019350505050611550565b60009150505b92915050565b60606115658484600085611591565b90509392505050565b600080836001016000848152602001908152602001600020541415905092915050565b6060824710156115d6576040517f08c379a00000000000000000000000000000000000000000000000000000000081526004016115cd9061243c565b60405180910390fd5b6000808673ffffffffffffffffffffffffffffffffffffffff1685876040516115ff91906124a3565b60006040518083038185875af1925050503d806000811461163c576040519150601f19603f3d011682016040523d82523d6000602084013e611641565b606091505b50915091506116528783838761165e565b92505050949350505050565b606083156116c05760008351036116b857611678856116d3565b6116b7576040517f08c379a00000000000000000000000000000000000000000000000000000000081526004016116ae90612506565b60405180910390fd5b5b8290506116cb565b6116ca83836116f6565b5b949350505050565b6000808273ffffffffffffffffffffffffffffffffffffffff163b119050919050565b6000825111156117095781518083602001fd5b806040517f08c379a000000000000000000000000000000000000000000000000000000000815260040161173d919061211b565b60405180910390fd5b600080fd5b6000819050919050565b61175e8161174b565b811461176957600080fd5b50565b60008135905061177b81611755565b92915050565b600073ffffffffffffffffffffffffffffffffffffffff82169050919050565b60006117ac82611781565b9050919050565b6117bc816117a1565b81146117c757600080fd5b50565b6000813590506117d9816117b3565b92915050565b600080604083850312156117f6576117f5611746565b5b60006118048582860161176c565b9250506020611815858286016117ca565b9150509250929050565b60007fffffffff0000000000000000000000000000000000000000000000000000000082169050919050565b6118548161181f565b811461185f57600080fd5b50565b6000813590506118718161184b565b92915050565b60006020828403121561188d5761188c611746565b5b600061189b84828501611862565b91505092915050565b60008115159050919050565b6118b9816118a4565b82525050565b60006020820190506118d460008301846118b0565b92915050565b60006118e5826117a1565b9050919050565b6118f5816118da565b811461190057600080fd5b50565b600081359050611912816118ec565b92915050565b60006020828403121561192e5761192d611746565b5b600061193c84828501611903565b91505092915050565b6000819050919050565b61195881611945565b811461196357600080fd5b50565b6000813590506119758161194f565b92915050565b60006020828403121561199157611990611746565b5b600061199f84828501611966565b91505092915050565b6119b181611945565b82525050565b60006020820190506119cc60008301846119a8565b92915050565b600080604083850312156119e9576119e8611746565b5b60006119f785828601611966565b9250506020611a08858286016117ca565b9150509250929050565b611a1b816118a4565b8114611a2657600080fd5b50565b600081359050611a3881611a12565b92915050565b600060208284031215611a5457611a53611746565b5b6000611a6284828501611a29565b91505092915050565b611a74816117a1565b82525050565b6000602082019050611a8f6000830184611a6b565b92915050565b60008060408385031215611aac57611aab611746565b5b6000611aba85828601611966565b9250506020611acb8582860161176c565b9150509250929050565b600060208284031215611aeb57611aea611746565b5b6000611af98482850161176c565b91505092915050565b611b0b8161174b565b82525050565b6000602082019050611b266000830184611b02565b92915050565b600060208284031215611b4257611b41611746565b5b6000611b50848285016117ca565b91505092915050565b600082825260208201905092915050565b7f43616c6c6572206973206e6f7420612077697468647261776572000000000000600082015250565b6000611ba0601a83611b59565b9150611bab82611b6a565b602082019050919050565b60006020820190508181036000830152611bcf81611b93565b9050919050565b7f5769746864726177206973206e6f7420617661696c61626c6500000000000000600082015250565b6000611c0c601983611b59565b9150611c1782611bd6565b602082019050919050565b60006020820190508181036000830152611c3b81611bff565b9050919050565b7f457863656564206d6178696d756d20616d6f756e740000000000000000000000600082015250565b6000611c78601583611b59565b9150611c8382611c42565b602082019050919050565b60006020820190508181036000830152611ca781611c6b565b9050919050565b6000604082019050611cc36000830185611a6b565b611cd06020830184611b02565b9392505050565b600081519050611ce681611a12565b92915050565b600060208284031215611d0257611d01611746565b5b6000611d1084828501611cd7565b91505092915050565b7f416363657373436f6e74726f6c3a2063616e206f6e6c792072656e6f756e636560008201527f20726f6c657320666f722073656c660000000000000000000000000000000000602082015250565b6000611d75602f83611b59565b9150611d8082611d19565b604082019050919050565b60006020820190508181036000830152611da481611d68565b9050919050565b600081519050611dba81611755565b92915050565b600060208284031215611dd657611dd5611746565b5b6000611de484828501611dab565b91505092915050565b7f496e73756666696369656e74206163636f756e742062616c616e636500000000600082015250565b6000611e23601c83611b59565b9150611e2e82611ded565b602082019050919050565b60006020820190508181036000830152611e5281611e16565b9050919050565b7f4f776e61626c653a206e6577206f776e657220697320746865207a65726f206160008201527f6464726573730000000000000000000000000000000000000000000000000000602082015250565b6000611eb5602683611b59565b9150611ec082611e59565b604082019050919050565b60006020820190508181036000830152611ee481611ea8565b9050919050565b7f4f776e61626c653a2063616c6c6572206973206e6f7420746865206f776e6572600082015250565b6000611f21602083611b59565b9150611f2c82611eeb565b602082019050919050565b60006020820190508181036000830152611f5081611f14565b9050919050565b6000606082019050611f6c6000830186611a6b565b611f796020830185611a6b565b611f866040830184611b02565b949350505050565b600081905092915050565b7f416363657373436f6e74726f6c3a206163636f756e7420000000000000000000600082015250565b6000611fcf601783611f8e565b9150611fda82611f99565b601782019050919050565b600081519050919050565b60005b8381101561200e578082015181840152602081019050611ff3565b60008484015250505050565b600061202582611fe5565b61202f8185611f8e565b935061203f818560208601611ff0565b80840191505092915050565b7f206973206d697373696e6720726f6c6520000000000000000000000000000000600082015250565b6000612081601183611f8e565b915061208c8261204b565b601182019050919050565b60006120a282611fc2565b91506120ae828561201a565b91506120b982612074565b91506120c5828461201a565b91508190509392505050565b6000601f19601f8301169050919050565b60006120ed82611fe5565b6120f78185611b59565b9350612107818560208601611ff0565b612110816120d1565b840191505092915050565b6000602082019050818103600083015261213581846120e2565b905092915050565b7f4e487b7100000000000000000000000000000000000000000000000000000000600052603260045260246000fd5b7f5361666545524332303a204552433230206f7065726174696f6e20646964206e60008201527f6f74207375636365656400000000000000000000000000000000000000000000602082015250565b60006121c8602a83611b59565b91506121d38261216c565b604082019050919050565b600060208201905081810360008301526121f7816121bb565b9050919050565b7f4e487b7100000000000000000000000000000000000000000000000000000000600052601160045260246000fd5b60006122388261174b565b91506122438361174b565b92508282026122518161174b565b91508282048414831517612268576122676121fe565b5b5092915050565b600061227a8261174b565b91506122858361174b565b925082820190508082111561229d5761229c6121fe565b5b92915050565b7f4e487b7100000000000000000000000000000000000000000000000000000000600052604160045260246000fd5b60006122dd8261174b565b9150600082036122f0576122ef6121fe565b5b600182039050919050565b7f537472696e67733a20686578206c656e67746820696e73756666696369656e74600082015250565b6000612331602083611b59565b915061233c826122fb565b602082019050919050565b6000602082019050818103600083015261236081612324565b9050919050565b60006123728261174b565b915061237d8361174b565b9250828203905081811115612395576123946121fe565b5b92915050565b7f4e487b7100000000000000000000000000000000000000000000000000000000600052603160045260246000fd5b7f416464726573733a20696e73756666696369656e742062616c616e636520666f60008201527f722063616c6c0000000000000000000000000000000000000000000000000000602082015250565b6000612426602683611b59565b9150612431826123ca565b604082019050919050565b6000602082019050818103600083015261245581612419565b9050919050565b600081519050919050565b600081905092915050565b600061247d8261245c565b6124878185612467565b9350612497818560208601611ff0565b80840191505092915050565b60006124af8284612472565b915081905092915050565b7f416464726573733a2063616c6c20746f206e6f6e2d636f6e7472616374000000600082015250565b60006124f0601d83611b59565b91506124fb826124ba565b602082019050919050565b6000602082019050818103600083015261251f816124e3565b905091905056fea2646970667358221220ca8f1e27dac8aad300dee78769c005598dddc7e1a265e1a8adaf3ab610f91ae664736f6c63430008140033",
  "linkReferences": {},
  "deployedLinkReferences": {}
}