{
  "_format": "hh-sol-artifact-1",
  "contractName": "Hero",
  "sourceName": "contracts/Hero.sol",
  "abi": [
    {
      "inputs": [],
      "stateMutability": "nonpayable",
      "type": "constructor"
    },
    {
      "anonymous": false,
      "inputs": [
        {
          "indexed": true,
          "internalType": "address",
          "name": "owner",
          "type": "address"
        },
        {
          "indexed": true,
          "internalType": "address",
          "name": "approved",
          "type": "address"
        },
        {
          "indexed": true,
          "internalType": "uint256",
          "name": "tokenId",
          "type": "uint256"
        }
      ],
      "name": "Approval",
      "type": "event"
    },
    {
      "anonymous": false,
      "inputs": [
        {
          "indexed": true,
          "internalType": "address",
          "name": "owner",
          "type": "address"
        },
        {
          "indexed": true,
          "internalType": "address",
          "name": "operator",
          "type": "address"
        },
        {
          "indexed": false,
          "internalType": "bool",
          "name": "approved",
          "type": "bool"
        }
      ],
      "name": "ApprovalForAll",
      "type": "event"
    },
    {
      "anonymous": false,
      "inputs": [
        {
          "indexed": false,
          "internalType": "address",
          "name": "to",
          "type": "address"
        },
        {
          "indexed": false,
          "internalType": "uint256",
          "name": "hero_type",
          "type": "uint256"
        },
        {
          "indexed": false,
          "internalType": "uint256",
          "name": "tokenid",
          "type": "uint256"
        }
      ],
      "name": "Mint",
      "type": "event"
    },
    {
      "anonymous": false,
      "inputs": [
        {
          "indexed": true,
          "internalType": "address",
          "name": "previousOwner",
          "type": "address"
        },
        {
          "indexed": true,
          "internalType": "address",
          "name": "newOwner",
          "type": "address"
        }
      ],
      "name": "OwnershipTransferred",
      "type": "event"
    },
    {
      "anonymous": false,
      "inputs": [
        {
          "indexed": true,
          "internalType": "bytes32",
          "name": "role",
          "type": "bytes32"
        },
        {
          "indexed": true,
          "internalType": "bytes32",
          "name": "previousAdminRole",
          "type": "bytes32"
        },
        {
          "indexed": true,
          "internalType": "bytes32",
          "name": "newAdminRole",
          "type": "bytes32"
        }
      ],
      "name": "RoleAdminChanged",
      "type": "event"
    },
    {
      "anonymous": false,
      "inputs": [
        {
          "indexed": true,
          "internalType": "bytes32",
          "name": "role",
          "type": "bytes32"
        },
        {
          "indexed": true,
          "internalType": "address",
          "name": "account",
          "type": "address"
        },
        {
          "indexed": true,
          "internalType": "address",
          "name": "sender",
          "type": "address"
        }
      ],
      "name": "RoleGranted",
      "type": "event"
    },
    {
      "anonymous": false,
      "inputs": [
        {
          "indexed": true,
          "internalType": "bytes32",
          "name": "role",
          "type": "bytes32"
        },
        {
          "indexed": true,
          "internalType": "address",
          "name": "account",
          "type": "address"
        },
        {
          "indexed": true,
          "internalType": "address",
          "name": "sender",
          "type": "address"
        }
      ],
      "name": "RoleRevoked",
      "type": "event"
    },
    {
      "anonymous": false,
      "inputs": [
        {
          "indexed": true,
          "internalType": "address",
          "name": "from",
          "type": "address"
        },
        {
          "indexed": true,
          "internalType": "address",
          "name": "to",
          "type": "address"
        },
        {
          "indexed": true,
          "internalType": "uint256",
          "name": "tokenId",
          "type": "uint256"
        }
      ],
      "name": "Transfer",
      "type": "event"
    },
    {
      "inputs": [],
      "name": "DEFAULT_ADMIN_ROLE",
      "outputs": [
        {
          "internalType": "bytes32",
          "name": "",
          "type": "bytes32"
        }
      ],
      "stateMutability": "view",
      "type": "function"
    },
    {
      "inputs": [],
      "name": "MINTER_ROLE",
      "outputs": [
        {
          "internalType": "bytes32",
          "name": "",
          "type": "bytes32"
        }
      ],
      "stateMutability": "view",
      "type": "function"
    },
    {
      "inputs": [
        {
          "internalType": "address",
          "name": "to",
          "type": "address"
        },
        {
          "internalType": "uint256",
          "name": "tokenId",
          "type": "uint256"
        }
      ],
      "name": "approve",
      "outputs": [],
      "stateMutability": "nonpayable",
      "type": "function"
    },
    {
      "inputs": [
        {
          "internalType": "address",
          "name": "owner",
          "type": "address"
        }
      ],
      "name": "balanceOf",
      "outputs": [
        {
          "internalType": "uint256",
          "name": "",
          "type": "uint256"
        }
      ],
      "stateMutability": "view",
      "type": "function"
    },
    {
      "inputs": [
        {
          "internalType": "uint256",
          "name": "tokenId",
          "type": "uint256"
        }
      ],
      "name": "getApproved",
      "outputs": [
        {
          "internalType": "address",
          "name": "",
          "type": "address"
        }
      ],
      "stateMutability": "view",
      "type": "function"
    },
    {
      "inputs": [
        {
          "internalType": "bytes32",
          "name": "role",
          "type": "bytes32"
        }
      ],
      "name": "getRoleAdmin",
      "outputs": [
        {
          "internalType": "bytes32",
          "name": "",
          "type": "bytes32"
        }
      ],
      "stateMutability": "view",
      "type": "function"
    },
    {
      "inputs": [
        {
          "internalType": "bytes32",
          "name": "role",
          "type": "bytes32"
        },
        {
          "internalType": "uint256",
          "name": "index",
          "type": "uint256"
        }
      ],
      "name": "getRoleMember",
      "outputs": [
        {
          "internalType": "address",
          "name": "",
          "type": "address"
        }
      ],
      "stateMutability": "view",
      "type": "function"
    },
    {
      "inputs": [
        {
          "internalType": "bytes32",
          "name": "role",
          "type": "bytes32"
        }
      ],
      "name": "getRoleMemberCount",
      "outputs": [
        {
          "internalType": "uint256",
          "name": "",
          "type": "uint256"
        }
      ],
      "stateMutability": "view",
      "type": "function"
    },
    {
      "inputs": [
        {
          "internalType": "bytes32",
          "name": "role",
          "type": "bytes32"
        },
        {
          "internalType": "address",
          "name": "account",
          "type": "address"
        }
      ],
      "name": "grantRole",
      "outputs": [],
      "stateMutability": "nonpayable",
      "type": "function"
    },
    {
      "inputs": [
        {
          "internalType": "bytes32",
          "name": "role",
          "type": "bytes32"
        },
        {
          "internalType": "address",
          "name": "account",
          "type": "address"
        }
      ],
      "name": "hasRole",
      "outputs": [
        {
          "internalType": "bool",
          "name": "",
          "type": "bool"
        }
      ],
      "stateMutability": "view",
      "type": "function"
    },
    {
      "inputs": [
        {
          "internalType": "address",
          "name": "owner",
          "type": "address"
        },
        {
          "internalType": "address",
          "name": "operator",
          "type": "address"
        }
      ],
      "name": "isApprovedForAll",
      "outputs": [
        {
          "internalType": "bool",
          "name": "",
          "type": "bool"
        }
      ],
      "stateMutability": "view",
      "type": "function"
    },
    {
      "inputs": [
        {
          "internalType": "address",
          "name": "owner",
          "type": "address"
        }
      ],
      "name": "listTokenIds",
      "outputs": [
        {
          "internalType": "uint256[]",
          "name": "tokenIds",
          "type": "uint256[]"
        }
      ],
      "stateMutability": "view",
      "type": "function"
    },
    {
      "inputs": [
        {
          "internalType": "address",
          "name": "to",
          "type": "address"
        },
        {
          "internalType": "uint256",
          "name": "hero_type",
          "type": "uint256"
        }
      ],
      "name": "mint",
      "outputs": [
        {
          "internalType": "uint256",
          "name": "",
          "type": "uint256"
        }
      ],
      "stateMutability": "nonpayable",
      "type": "function"
    },
    {
      "inputs": [],
      "name": "name",
      "outputs": [
        {
          "internalType": "string",
          "name": "",
          "type": "string"
        }
      ],
      "stateMutability": "view",
      "type": "function"
    },
    {
      "inputs": [],
      "name": "owner",
      "outputs": [
        {
          "internalType": "address",
          "name": "",
          "type": "address"
        }
      ],
      "stateMutability": "view",
      "type": "function"
    },
    {
      "inputs": [
        {
          "internalType": "uint256",
          "name": "tokenId",
          "type": "uint256"
        }
      ],
      "name": "ownerOf",
      "outputs": [
        {
          "internalType": "address",
          "name": "",
          "type": "address"
        }
      ],
      "stateMutability": "view",
      "type": "function"
    },
    {
      "inputs": [],
      "name": "renounceOwnership",
      "outputs": [],
      "stateMutability": "nonpayable",
      "type": "function"
    },
    {
      "inputs": [
        {
          "internalType": "bytes32",
          "name": "role",
          "type": "bytes32"
        },
        {
          "internalType": "address",
          "name": "account",
          "type": "address"
        }
      ],
      "name": "renounceRole",
      "outputs": [],
      "stateMutability": "nonpayable",
      "type": "function"
    },
    {
      "inputs": [
        {
          "internalType": "bytes32",
          "name": "role",
          "type": "bytes32"
        },
        {
          "internalType": "address",
          "name": "account",
          "type": "address"
        }
      ],
      "name": "revokeRole",
      "outputs": [],
      "stateMutability": "nonpayable",
      "type": "function"
    },
    {
      "inputs": [
        {
          "internalType": "address",
          "name": "from",
          "type": "address"
        },
        {
          "internalType": "address",
          "name": "to",
          "type": "address"
        },
        {
          "internalType": "uint256",
          "name": "tokenId",
          "type": "uint256"
        }
      ],
      "name": "safeTransferFrom",
      "outputs": [],
      "stateMutability": "nonpayable",
      "type": "function"
    },
    {
      "inputs": [
        {
          "internalType": "address",
          "name": "from",
          "type": "address"
        },
        {
          "internalType": "address",
          "name": "to",
          "type": "address"
        },
        {
          "internalType": "uint256",
          "name": "tokenId",
          "type": "uint256"
        },
        {
          "internalType": "bytes",
          "name": "data",
          "type": "bytes"
        }
      ],
      "name": "safeTransferFrom",
      "outputs": [],
      "stateMutability": "nonpayable",
      "type": "function"
    },
    {
      "inputs": [
        {
          "internalType": "address",
          "name": "operator",
          "type": "address"
        },
        {
          "internalType": "bool",
          "name": "approved",
          "type": "bool"
        }
      ],
      "name": "setApprovalForAll",
      "outputs": [],
      "stateMutability": "nonpayable",
      "type": "function"
    },
    {
      "inputs": [
        {
          "internalType": "string",
          "name": "_newUrl",
          "type": "string"
        }
      ],
      "name": "setBaseUrl",
      "outputs": [],
      "stateMutability": "nonpayable",
      "type": "function"
    },
    {
      "inputs": [
        {
          "internalType": "bytes4",
          "name": "interfaceId",
          "type": "bytes4"
        }
      ],
      "name": "supportsInterface",
      "outputs": [
        {
          "internalType": "bool",
          "name": "",
          "type": "bool"
        }
      ],
      "stateMutability": "view",
      "type": "function"
    },
    {
      "inputs": [],
      "name": "symbol",
      "outputs": [
        {
          "internalType": "string",
          "name": "",
          "type": "string"
        }
      ],
      "stateMutability": "view",
      "type": "function"
    },
    {
      "inputs": [
        {
          "internalType": "uint256",
          "name": "index",
          "type": "uint256"
        }
      ],
      "name": "tokenByIndex",
      "outputs": [
        {
          "internalType": "uint256",
          "name": "",
          "type": "uint256"
        }
      ],
      "stateMutability": "view",
      "type": "function"
    },
    {
      "inputs": [
        {
          "internalType": "address",
          "name": "owner",
          "type": "address"
        },
        {
          "internalType": "uint256",
          "name": "index",
          "type": "uint256"
        }
      ],
      "name": "tokenOfOwnerByIndex",
      "outputs": [
        {
          "internalType": "uint256",
          "name": "",
          "type": "uint256"
        }
      ],
      "stateMutability": "view",
      "type": "function"
    },
    {
      "inputs": [
        {
          "internalType": "uint256",
          "name": "tokenId",
          "type": "uint256"
        }
      ],
      "name": "tokenURI",
      "outputs": [
        {
          "internalType": "string",
          "name": "",
          "type": "string"
        }
      ],
      "stateMutability": "view",
      "type": "function"
    },
    {
      "inputs": [],
      "name": "totalSupply",
      "outputs": [
        {
          "internalType": "uint256",
          "name": "",
          "type": "uint256"
        }
      ],
      "stateMutability": "view",
      "type": "function"
    },
    {
      "inputs": [
        {
          "internalType": "address",
          "name": "from",
          "type": "address"
        },
        {
          "internalType": "address",
          "name": "to",
          "type": "address"
        },
        {
          "internalType": "uint256",
          "name": "tokenId",
          "type": "uint256"
        }
      ],
      "name": "transferFrom",
      "outputs": [],
      "stateMutability": "nonpayable",
      "type": "function"
    },
    {
      "inputs": [
        {
          "internalType": "address",
          "name": "newOwner",
          "type": "address"
        }
      ],
      "name": "transferOwnership",
      "outputs": [],
      "stateMutability": "nonpayable",
      "type": "function"
    }
  ],
  "bytecode": "0x60806040523480156200001157600080fd5b506040518060400160405280600d81526020017f537469636b6d616e204865726f000000000000000000000000000000000000008152506040518060400160405280600481526020017f4865726f0000000000000000000000000000000000000000000000000000000081525081600090816200008f9190620006a6565b508060019081620000a19190620006a6565b505050620000c4620000b8620000ee60201b60201c565b620000f660201b60201c565b620000e86000801b620000dc620000ee60201b60201c565b620001bc60201b60201c565b6200078d565b600033905090565b6000600a60009054906101000a900473ffffffffffffffffffffffffffffffffffffffff16905081600a60006101000a81548173ffffffffffffffffffffffffffffffffffffffff021916908373ffffffffffffffffffffffffffffffffffffffff1602179055508173ffffffffffffffffffffffffffffffffffffffff168173ffffffffffffffffffffffffffffffffffffffff167f8be0079c531659141344cd1fd0a4f28419497f9722a3daafe3b4186f6b6457e060405160405180910390a35050565b620001ce8282620001fa60201b60201c565b620001f581600c6000858152602001908152602001600020620002ec60201b90919060201c565b505050565b6200020c82826200032460201b60201c565b620002e8576001600b600084815260200190815260200160002060000160008373ffffffffffffffffffffffffffffffffffffffff1673ffffffffffffffffffffffffffffffffffffffff16815260200190815260200160002060006101000a81548160ff0219169083151502179055506200028d620000ee60201b60201c565b73ffffffffffffffffffffffffffffffffffffffff168173ffffffffffffffffffffffffffffffffffffffff16837f2f8788117e7eff1d82e926ec794901d17c78024a50270940304540a733656f0d60405160405180910390a45b5050565b60006200031c836000018373ffffffffffffffffffffffffffffffffffffffff1660001b6200038f60201b60201c565b905092915050565b6000600b600084815260200190815260200160002060000160008373ffffffffffffffffffffffffffffffffffffffff1673ffffffffffffffffffffffffffffffffffffffff16815260200190815260200160002060009054906101000a900460ff16905092915050565b6000620003a383836200040960201b60201c565b620003fe57826000018290806001815401808255809150506001900390600052602060002001600090919091909150558260000180549050836001016000848152602001908152602001600020819055506001905062000403565b600090505b92915050565b600080836001016000848152602001908152602001600020541415905092915050565b600081519050919050565b7f4e487b7100000000000000000000000000000000000000000000000000000000600052604160045260246000fd5b7f4e487b7100000000000000000000000000000000000000000000000000000000600052602260045260246000fd5b60006002820490506001821680620004ae57607f821691505b602082108103620004c457620004c362000466565b5b50919050565b60008190508160005260206000209050919050565b60006020601f8301049050919050565b600082821b905092915050565b6000600883026200052e7fffffffffffffffffffffffffffffffffffffffffffffffffffffffffffffffff82620004ef565b6200053a8683620004ef565b95508019841693508086168417925050509392505050565b6000819050919050565b6000819050919050565b600062000587620005816200057b8462000552565b6200055c565b62000552565b9050919050565b6000819050919050565b620005a38362000566565b620005bb620005b2826200058e565b848454620004fc565b825550505050565b600090565b620005d2620005c3565b620005df81848462000598565b505050565b5b818110156200060757620005fb600082620005c8565b600181019050620005e5565b5050565b601f82111562000656576200062081620004ca565b6200062b84620004df565b810160208510156200063b578190505b620006536200064a85620004df565b830182620005e4565b50505b505050565b600082821c905092915050565b60006200067b600019846008026200065b565b1980831691505092915050565b600062000696838362000668565b9150826002028217905092915050565b620006b1826200042c565b67ffffffffffffffff811115620006cd57620006cc62000437565b5b620006d9825462000495565b620006e68282856200060b565b600060209050601f8311600181146200071e576000841562000709578287015190505b62000715858262000688565b86555062000785565b601f1984166200072e86620004ca565b60005b82811015620007585784890151825560018201915060208501945060208101905062000731565b8683101562000778578489015162000774601f89168262000668565b8355505b6001600288020188555050505b505050505050565b6148db806200079d6000396000f3fe608060405234801561001057600080fd5b50600436106101e55760003560e01c8063715018a61161010f578063c7c3268b116100a2578063d547741f11610071578063d547741f146105c8578063e2a4fad3146105e4578063e985e9c514610614578063f2fde38b14610644576101e5565b8063c7c3268b1461052e578063c87b56dd1461054a578063ca15c8731461057a578063d5391393146105aa576101e5565b806395d89b41116100de57806395d89b41146104ba578063a217fddf146104d8578063a22cb465146104f6578063b88d4fde14610512576101e5565b8063715018a6146104325780638da5cb5b1461043c5780639010d07c1461045a57806391d148541461048a576101e5565b80632f2ff15d1161018757806342842e0e1161015657806342842e0e146103865780634f6ccce7146103a25780636352211e146103d257806370a0823114610402576101e5565b80632f2ff15d146102ee5780632f745c591461030a57806336568abe1461033a57806340c10f1914610356576101e5565b8063095ea7b3116101c3578063095ea7b31461026857806318160ddd1461028457806323b872dd146102a2578063248a9ca3146102be576101e5565b806301ffc9a7146101ea57806306fdde031461021a578063081812fc14610238575b600080fd5b61020460048036038101906101ff9190612fb3565b610660565b6040516102119190612ffb565b60405180910390f35b610222610672565b60405161022f91906130a6565b60405180910390f35b610252600480360381019061024d91906130fe565b610704565b60405161025f919061316c565b60405180910390f35b610282600480360381019061027d91906131b3565b61074a565b005b61028c610861565b6040516102999190613202565b60405180910390f35b6102bc60048036038101906102b7919061321d565b61086e565b005b6102d860048036038101906102d391906132a6565b6108ce565b6040516102e591906132e2565b60405180910390f35b610308600480360381019061030391906132fd565b6108ee565b005b610324600480360381019061031f91906131b3565b61090f565b6040516103319190613202565b60405180910390f35b610354600480360381019061034f91906132fd565b6109b4565b005b610370600480360381019061036b91906131b3565b610a37565b60405161037d9190613202565b60405180910390f35b6103a0600480360381019061039b919061321d565b610b54565b005b6103bc60048036038101906103b791906130fe565b610b74565b6040516103c99190613202565b60405180910390f35b6103ec60048036038101906103e791906130fe565b610be5565b6040516103f9919061316c565b60405180910390f35b61041c6004803603810190610417919061333d565b610c6b565b6040516104299190613202565b60405180910390f35b61043a610d22565b005b610444610d36565b604051610451919061316c565b60405180910390f35b610474600480360381019061046f919061336a565b610d60565b604051610481919061316c565b60405180910390f35b6104a4600480360381019061049f91906132fd565b610d8f565b6040516104b19190612ffb565b60405180910390f35b6104c2610dfa565b6040516104cf91906130a6565b60405180910390f35b6104e0610e8c565b6040516104ed91906132e2565b60405180910390f35b610510600480360381019061050b91906133d6565b610e93565b005b61052c6004803603810190610527919061354b565b610ea9565b005b6105486004803603810190610543919061366f565b610f0b565b005b610564600480360381019061055f91906130fe565b610f26565b60405161057191906130a6565b60405180910390f35b610594600480360381019061058f91906132a6565b610f8e565b6040516105a19190613202565b60405180910390f35b6105b2610fb2565b6040516105bf91906132e2565b60405180910390f35b6105e260048036038101906105dd91906132fd565b610fd6565b005b6105fe60048036038101906105f9919061333d565b610ff7565b60405161060b9190613776565b60405180910390f35b61062e60048036038101906106299190613798565b6110a5565b60405161063b9190612ffb565b60405180910390f35b61065e6004803603810190610659919061333d565b611139565b005b600061066b826111bc565b9050919050565b60606000805461068190613807565b80601f01602080910402602001604051908101604052809291908181526020018280546106ad90613807565b80156106fa5780601f106106cf576101008083540402835291602001916106fa565b820191906000526020600020905b8154815290600101906020018083116106dd57829003601f168201915b5050505050905090565b600061070f82611236565b6004600083815260200190815260200160002060009054906101000a900473ffffffffffffffffffffffffffffffffffffffff169050919050565b600061075582610be5565b90508073ffffffffffffffffffffffffffffffffffffffff168373ffffffffffffffffffffffffffffffffffffffff16036107c5576040517f08c379a00000000000000000000000000000000000000000000000000000000081526004016107bc906138aa565b60405180910390fd5b8073ffffffffffffffffffffffffffffffffffffffff166107e4611281565b73ffffffffffffffffffffffffffffffffffffffff16148061081357506108128161080d611281565b6110a5565b5b610852576040517f08c379a00000000000000000000000000000000000000000000000000000000081526004016108499061393c565b60405180910390fd5b61085c8383611289565b505050565b6000600880549050905090565b61087f610879611281565b82611342565b6108be576040517f08c379a00000000000000000000000000000000000000000000000000000000081526004016108b5906139ce565b60405180910390fd5b6108c98383836113d7565b505050565b6000600b6000838152602001908152602001600020600101549050919050565b6108f7826108ce565b610900816116d0565b61090a83836116e4565b505050565b600061091a83610c6b565b821061095b576040517f08c379a000000000000000000000000000000000000000000000000000000000815260040161095290613a60565b60405180910390fd5b600660008473ffffffffffffffffffffffffffffffffffffffff1673ffffffffffffffffffffffffffffffffffffffff168152602001908152602001600020600083815260200190815260200160002054905092915050565b6109bc611281565b73ffffffffffffffffffffffffffffffffffffffff168173ffffffffffffffffffffffffffffffffffffffff1614610a29576040517f08c379a0000000000000000000000000000000000000000000000000000000008152600401610a2090613af2565b60405180910390fd5b610a338282611718565b5050565b6000610a41611281565b73ffffffffffffffffffffffffffffffffffffffff16610a5f610d36565b73ffffffffffffffffffffffffffffffffffffffff161480610aae5750610aad7f9f2df0fed2c77648de5860a4cc508cd0818c85b8b8a1ab4ceeef8d981c8956a6610aa8611281565b610d8f565b5b610aed576040517f08c379a0000000000000000000000000000000000000000000000000000000008152600401610ae490613b5e565b60405180910390fd5b610af7600d61174c565b6000610b03600d611762565b9050610b0f8482611770565b7f4c209b5fc8ad50758f13e2e1088ba56a560dff690a1c6fef26394f4c03821c4f848483604051610b4293929190613b7e565b60405180910390a18091505092915050565b610b6f83838360405180602001604052806000815250610ea9565b505050565b6000610b7e610861565b8210610bbf576040517f08c379a0000000000000000000000000000000000000000000000000000000008152600401610bb690613c27565b60405180910390fd5b60088281548110610bd357610bd2613c47565b5b90600052602060002001549050919050565b600080610bf18361198d565b9050600073ffffffffffffffffffffffffffffffffffffffff168173ffffffffffffffffffffffffffffffffffffffff1603610c62576040517f08c379a0000000000000000000000000000000000000000000000000000000008152600401610c5990613cc2565b60405180910390fd5b80915050919050565b60008073ffffffffffffffffffffffffffffffffffffffff168273ffffffffffffffffffffffffffffffffffffffff1603610cdb576040517f08c379a0000000000000000000000000000000000000000000000000000000008152600401610cd290613d54565b60405180910390fd5b600360008373ffffffffffffffffffffffffffffffffffffffff1673ffffffffffffffffffffffffffffffffffffffff168152602001908152602001600020549050919050565b610d2a6119ca565b610d346000611a48565b565b6000600a60009054906101000a900473ffffffffffffffffffffffffffffffffffffffff16905090565b6000610d8782600c6000868152602001908152602001600020611b0e90919063ffffffff16565b905092915050565b6000600b600084815260200190815260200160002060000160008373ffffffffffffffffffffffffffffffffffffffff1673ffffffffffffffffffffffffffffffffffffffff16815260200190815260200160002060009054906101000a900460ff16905092915050565b606060018054610e0990613807565b80601f0160208091040260200160405190810160405280929190818152602001828054610e3590613807565b8015610e825780601f10610e5757610100808354040283529160200191610e82565b820191906000526020600020905b815481529060010190602001808311610e6557829003601f168201915b5050505050905090565b6000801b81565b610ea5610e9e611281565b8383611b28565b5050565b610eba610eb4611281565b83611342565b610ef9576040517f08c379a0000000000000000000000000000000000000000000000000000000008152600401610ef0906139ce565b60405180910390fd5b610f0584848484611c94565b50505050565b610f136119ca565b80600e9081610f229190613f20565b5050565b6060610f3182611236565b6000610f3b611cf0565b90506000815111610f5b5760405180602001604052806000815250610f86565b80610f6584611d82565b604051602001610f7692919061402e565b6040516020818303038152906040525b915050919050565b6000610fab600c6000848152602001908152602001600020611e50565b9050919050565b7f9f2df0fed2c77648de5860a4cc508cd0818c85b8b8a1ab4ceeef8d981c8956a681565b610fdf826108ce565b610fe8816116d0565b610ff28383611718565b505050565b6060600061100483610c6b565b905060008167ffffffffffffffff81111561102257611021613420565b5b6040519080825280602002602001820160405280156110505781602001602082028036833780820191505090505b50905060005b8281101561109a57611068858261090f565b82828151811061107b5761107a613c47565b5b602002602001018181525050808061109290614081565b915050611056565b508092505050919050565b6000600560008473ffffffffffffffffffffffffffffffffffffffff1673ffffffffffffffffffffffffffffffffffffffff16815260200190815260200160002060008373ffffffffffffffffffffffffffffffffffffffff1673ffffffffffffffffffffffffffffffffffffffff16815260200190815260200160002060009054906101000a900460ff16905092915050565b6111416119ca565b600073ffffffffffffffffffffffffffffffffffffffff168173ffffffffffffffffffffffffffffffffffffffff16036111b0576040517f08c379a00000000000000000000000000000000000000000000000000000000081526004016111a79061413b565b60405180910390fd5b6111b981611a48565b50565b60007f5a05180f000000000000000000000000000000000000000000000000000000007bffffffffffffffffffffffffffffffffffffffffffffffffffffffff1916827bffffffffffffffffffffffffffffffffffffffffffffffffffffffff1916148061122f575061122e82611e65565b5b9050919050565b61123f81611edf565b61127e576040517f08c379a000000000000000000000000000000000000000000000000000000000815260040161127590613cc2565b60405180910390fd5b50565b600033905090565b816004600083815260200190815260200160002060006101000a81548173ffffffffffffffffffffffffffffffffffffffff021916908373ffffffffffffffffffffffffffffffffffffffff160217905550808273ffffffffffffffffffffffffffffffffffffffff166112fc83610be5565b73ffffffffffffffffffffffffffffffffffffffff167f8c5be1e5ebec7d5bd14f71427d1e84f3dd0314c0f7b2291e5b200ac8c7c3b92560405160405180910390a45050565b60008061134e83610be5565b90508073ffffffffffffffffffffffffffffffffffffffff168473ffffffffffffffffffffffffffffffffffffffff161480611390575061138f81856110a5565b5b806113ce57508373ffffffffffffffffffffffffffffffffffffffff166113b684610704565b73ffffffffffffffffffffffffffffffffffffffff16145b91505092915050565b8273ffffffffffffffffffffffffffffffffffffffff166113f782610be5565b73ffffffffffffffffffffffffffffffffffffffff161461144d576040517f08c379a0000000000000000000000000000000000000000000000000000000008152600401611444906141cd565b60405180910390fd5b600073ffffffffffffffffffffffffffffffffffffffff168273ffffffffffffffffffffffffffffffffffffffff16036114bc576040517f08c379a00000000000000000000000000000000000000000000000000000000081526004016114b39061425f565b60405180910390fd5b6114c98383836001611f20565b8273ffffffffffffffffffffffffffffffffffffffff166114e982610be5565b73ffffffffffffffffffffffffffffffffffffffff161461153f576040517f08c379a0000000000000000000000000000000000000000000000000000000008152600401611536906141cd565b60405180910390fd5b6004600082815260200190815260200160002060006101000a81549073ffffffffffffffffffffffffffffffffffffffff02191690556001600360008573ffffffffffffffffffffffffffffffffffffffff1673ffffffffffffffffffffffffffffffffffffffff168152602001908152602001600020600082825403925050819055506001600360008473ffffffffffffffffffffffffffffffffffffffff1673ffffffffffffffffffffffffffffffffffffffff16815260200190815260200160002060008282540192505081905550816002600083815260200190815260200160002060006101000a81548173ffffffffffffffffffffffffffffffffffffffff021916908373ffffffffffffffffffffffffffffffffffffffff160217905550808273ffffffffffffffffffffffffffffffffffffffff168473ffffffffffffffffffffffffffffffffffffffff167fddf252ad1be2c89b69c2b068fc378daa952ba7f163c4a11628f55a4df523b3ef60405160405180910390a46116cb838383600161207e565b505050565b6116e1816116dc611281565b612084565b50565b6116ee8282612109565b61171381600c60008581526020019081526020016000206121ea90919063ffffffff16565b505050565b611722828261221a565b61174781600c60008581526020019081526020016000206122fc90919063ffffffff16565b505050565b6001816000016000828254019250508190555050565b600081600001549050919050565b600073ffffffffffffffffffffffffffffffffffffffff168273ffffffffffffffffffffffffffffffffffffffff16036117df576040517f08c379a00000000000000000000000000000000000000000000000000000000081526004016117d6906142cb565b60405180910390fd5b6117e881611edf565b15611828576040517f08c379a000000000000000000000000000000000000000000000000000000000815260040161181f90614337565b60405180910390fd5b611836600083836001611f20565b61183f81611edf565b1561187f576040517f08c379a000000000000000000000000000000000000000000000000000000000815260040161187690614337565b60405180910390fd5b6001600360008473ffffffffffffffffffffffffffffffffffffffff1673ffffffffffffffffffffffffffffffffffffffff16815260200190815260200160002060008282540192505081905550816002600083815260200190815260200160002060006101000a81548173ffffffffffffffffffffffffffffffffffffffff021916908373ffffffffffffffffffffffffffffffffffffffff160217905550808273ffffffffffffffffffffffffffffffffffffffff16600073ffffffffffffffffffffffffffffffffffffffff167fddf252ad1be2c89b69c2b068fc378daa952ba7f163c4a11628f55a4df523b3ef60405160405180910390a461198960008383600161207e565b5050565b60006002600083815260200190815260200160002060009054906101000a900473ffffffffffffffffffffffffffffffffffffffff169050919050565b6119d2611281565b73ffffffffffffffffffffffffffffffffffffffff166119f0610d36565b73ffffffffffffffffffffffffffffffffffffffff1614611a46576040517f08c379a0000000000000000000000000000000000000000000000000000000008152600401611a3d906143a3565b60405180910390fd5b565b6000600a60009054906101000a900473ffffffffffffffffffffffffffffffffffffffff16905081600a60006101000a81548173ffffffffffffffffffffffffffffffffffffffff021916908373ffffffffffffffffffffffffffffffffffffffff1602179055508173ffffffffffffffffffffffffffffffffffffffff168173ffffffffffffffffffffffffffffffffffffffff167f8be0079c531659141344cd1fd0a4f28419497f9722a3daafe3b4186f6b6457e060405160405180910390a35050565b6000611b1d836000018361232c565b60001c905092915050565b8173ffffffffffffffffffffffffffffffffffffffff168373ffffffffffffffffffffffffffffffffffffffff1603611b96576040517f08c379a0000000000000000000000000000000000000000000000000000000008152600401611b8d9061440f565b60405180910390fd5b80600560008573ffffffffffffffffffffffffffffffffffffffff1673ffffffffffffffffffffffffffffffffffffffff16815260200190815260200160002060008473ffffffffffffffffffffffffffffffffffffffff1673ffffffffffffffffffffffffffffffffffffffff16815260200190815260200160002060006101000a81548160ff0219169083151502179055508173ffffffffffffffffffffffffffffffffffffffff168373ffffffffffffffffffffffffffffffffffffffff167f17307eab39ab6107e8899845ad3d59bd9653f200f220920489ca2b5937696c3183604051611c879190612ffb565b60405180910390a3505050565b611c9f8484846113d7565b611cab84848484612357565b611cea576040517f08c379a0000000000000000000000000000000000000000000000000000000008152600401611ce1906144a1565b60405180910390fd5b50505050565b6060600e8054611cff90613807565b80601f0160208091040260200160405190810160405280929190818152602001828054611d2b90613807565b8015611d785780601f10611d4d57610100808354040283529160200191611d78565b820191906000526020600020905b815481529060010190602001808311611d5b57829003601f168201915b5050505050905090565b606060006001611d91846124de565b01905060008167ffffffffffffffff811115611db057611daf613420565b5b6040519080825280601f01601f191660200182016040528015611de25781602001600182028036833780820191505090505b509050600082602001820190505b600115611e45578080600190039150507f3031323334353637383961626364656600000000000000000000000000000000600a86061a8153600a8581611e3957611e386144c1565b5b04945060008503611df0575b819350505050919050565b6000611e5e82600001612631565b9050919050565b60007f7965db0b000000000000000000000000000000000000000000000000000000007bffffffffffffffffffffffffffffffffffffffffffffffffffffffff1916827bffffffffffffffffffffffffffffffffffffffffffffffffffffffff19161480611ed85750611ed782612642565b5b9050919050565b60008073ffffffffffffffffffffffffffffffffffffffff16611f018361198d565b73ffffffffffffffffffffffffffffffffffffffff1614159050919050565b611f2c848484846126bc565b6001811115611f70576040517f08c379a0000000000000000000000000000000000000000000000000000000008152600401611f6790614562565b60405180910390fd5b6000829050600073ffffffffffffffffffffffffffffffffffffffff168573ffffffffffffffffffffffffffffffffffffffff1603611fb757611fb2816126c2565b611ff6565b8373ffffffffffffffffffffffffffffffffffffffff168573ffffffffffffffffffffffffffffffffffffffff1614611ff557611ff4858261270b565b5b5b600073ffffffffffffffffffffffffffffffffffffffff168473ffffffffffffffffffffffffffffffffffffffff16036120385761203381612878565b612077565b8473ffffffffffffffffffffffffffffffffffffffff168473ffffffffffffffffffffffffffffffffffffffff1614612076576120758482612949565b5b5b5050505050565b50505050565b61208e8282610d8f565b6121055761209b816129c8565b6120a98360001c60206129f5565b6040516020016120ba92919061461a565b6040516020818303038152906040526040517f08c379a00000000000000000000000000000000000000000000000000000000081526004016120fc91906130a6565b60405180910390fd5b5050565b6121138282610d8f565b6121e6576001600b600084815260200190815260200160002060000160008373ffffffffffffffffffffffffffffffffffffffff1673ffffffffffffffffffffffffffffffffffffffff16815260200190815260200160002060006101000a81548160ff02191690831515021790555061218b611281565b73ffffffffffffffffffffffffffffffffffffffff168173ffffffffffffffffffffffffffffffffffffffff16837f2f8788117e7eff1d82e926ec794901d17c78024a50270940304540a733656f0d60405160405180910390a45b5050565b6000612212836000018373ffffffffffffffffffffffffffffffffffffffff1660001b612c31565b905092915050565b6122248282610d8f565b156122f8576000600b600084815260200190815260200160002060000160008373ffffffffffffffffffffffffffffffffffffffff1673ffffffffffffffffffffffffffffffffffffffff16815260200190815260200160002060006101000a81548160ff02191690831515021790555061229d611281565b73ffffffffffffffffffffffffffffffffffffffff168173ffffffffffffffffffffffffffffffffffffffff16837ff6391f5c32d9c69d2a47ea670b442974b53935d1edc7fd64eb21e047a839171b60405160405180910390a45b5050565b6000612324836000018373ffffffffffffffffffffffffffffffffffffffff1660001b612ca1565b905092915050565b600082600001828154811061234457612343613c47565b5b9060005260206000200154905092915050565b60006123788473ffffffffffffffffffffffffffffffffffffffff16612db5565b156124d1578373ffffffffffffffffffffffffffffffffffffffff1663150b7a026123a1611281565b8786866040518563ffffffff1660e01b81526004016123c394939291906146a9565b6020604051808303816000875af19250505080156123ff57506040513d601f19601f820116820180604052508101906123fc919061470a565b60015b612481573d806000811461242f576040519150601f19603f3d011682016040523d82523d6000602084013e612434565b606091505b506000815103612479576040517f08c379a0000000000000000000000000000000000000000000000000000000008152600401612470906144a1565b60405180910390fd5b805181602001fd5b63150b7a0260e01b7bffffffffffffffffffffffffffffffffffffffffffffffffffffffff1916817bffffffffffffffffffffffffffffffffffffffffffffffffffffffff1916149150506124d6565b600190505b949350505050565b600080600090507a184f03e93ff9f4daa797ed6e38ed64bf6a1f010000000000000000831061253c577a184f03e93ff9f4daa797ed6e38ed64bf6a1f0100000000000000008381612532576125316144c1565b5b0492506040810190505b6d04ee2d6d415b85acef81000000008310612579576d04ee2d6d415b85acef8100000000838161256f5761256e6144c1565b5b0492506020810190505b662386f26fc1000083106125a857662386f26fc10000838161259e5761259d6144c1565b5b0492506010810190505b6305f5e10083106125d1576305f5e10083816125c7576125c66144c1565b5b0492506008810190505b61271083106125f65761271083816125ec576125eb6144c1565b5b0492506004810190505b60648310612619576064838161260f5761260e6144c1565b5b0492506002810190505b600a8310612628576001810190505b80915050919050565b600081600001805490509050919050565b60007f780e9d63000000000000000000000000000000000000000000000000000000007bffffffffffffffffffffffffffffffffffffffffffffffffffffffff1916827bffffffffffffffffffffffffffffffffffffffffffffffffffffffff191614806126b557506126b482612dd8565b5b9050919050565b50505050565b6008805490506009600083815260200190815260200160002081905550600881908060018154018082558091505060019003906000526020600020016000909190919091505550565b6000600161271884610c6b565b6127229190614737565b9050600060076000848152602001908152602001600020549050818114612807576000600660008673ffffffffffffffffffffffffffffffffffffffff1673ffffffffffffffffffffffffffffffffffffffff168152602001908152602001600020600084815260200190815260200160002054905080600660008773ffffffffffffffffffffffffffffffffffffffff1673ffffffffffffffffffffffffffffffffffffffff168152602001908152602001600020600084815260200190815260200160002081905550816007600083815260200190815260200160002081905550505b6007600084815260200190815260200160002060009055600660008573ffffffffffffffffffffffffffffffffffffffff1673ffffffffffffffffffffffffffffffffffffffff16815260200190815260200160002060008381526020019081526020016000206000905550505050565b6000600160088054905061288c9190614737565b90506000600960008481526020019081526020016000205490506000600883815481106128bc576128bb613c47565b5b9060005260206000200154905080600883815481106128de576128dd613c47565b5b90600052602060002001819055508160096000838152602001908152602001600020819055506009600085815260200190815260200160002060009055600880548061292d5761292c61476b565b5b6001900381819060005260206000200160009055905550505050565b600061295483610c6b565b905081600660008573ffffffffffffffffffffffffffffffffffffffff1673ffffffffffffffffffffffffffffffffffffffff168152602001908152602001600020600083815260200190815260200160002081905550806007600084815260200190815260200160002081905550505050565b60606129ee8273ffffffffffffffffffffffffffffffffffffffff16601460ff166129f5565b9050919050565b606060006002836002612a08919061479a565b612a1291906147dc565b67ffffffffffffffff811115612a2b57612a2a613420565b5b6040519080825280601f01601f191660200182016040528015612a5d5781602001600182028036833780820191505090505b5090507f300000000000000000000000000000000000000000000000000000000000000081600081518110612a9557612a94613c47565b5b60200101907effffffffffffffffffffffffffffffffffffffffffffffffffffffffffffff1916908160001a9053507f780000000000000000000000000000000000000000000000000000000000000081600181518110612af957612af8613c47565b5b60200101907effffffffffffffffffffffffffffffffffffffffffffffffffffffffffffff1916908160001a90535060006001846002612b39919061479a565b612b4391906147dc565b90505b6001811115612be3577f3031323334353637383961626364656600000000000000000000000000000000600f861660108110612b8557612b84613c47565b5b1a60f81b828281518110612b9c57612b9b613c47565b5b60200101907effffffffffffffffffffffffffffffffffffffffffffffffffffffffffffff1916908160001a905350600485901c945080612bdc90614810565b9050612b46565b5060008414612c27576040517f08c379a0000000000000000000000000000000000000000000000000000000008152600401612c1e90614885565b60405180910390fd5b8091505092915050565b6000612c3d8383612eba565b612c96578260000182908060018154018082558091505060019003906000526020600020016000909190919091505582600001805490508360010160008481526020019081526020016000208190555060019050612c9b565b600090505b92915050565b60008083600101600084815260200190815260200160002054905060008114612da9576000600182612cd39190614737565b9050600060018660000180549050612ceb9190614737565b9050818114612d5a576000866000018281548110612d0c57612d0b613c47565b5b9060005260206000200154905080876000018481548110612d3057612d2f613c47565b5b90600052602060002001819055508387600101600083815260200190815260200160002081905550505b85600001805480612d6e57612d6d61476b565b5b600190038181906000526020600020016000905590558560010160008681526020019081526020016000206000905560019350505050612daf565b60009150505b92915050565b6000808273ffffffffffffffffffffffffffffffffffffffff163b119050919050565b60007f80ac58cd000000000000000000000000000000000000000000000000000000007bffffffffffffffffffffffffffffffffffffffffffffffffffffffff1916827bffffffffffffffffffffffffffffffffffffffffffffffffffffffff19161480612ea357507f5b5e139f000000000000000000000000000000000000000000000000000000007bffffffffffffffffffffffffffffffffffffffffffffffffffffffff1916827bffffffffffffffffffffffffffffffffffffffffffffffffffffffff1916145b80612eb35750612eb282612edd565b5b9050919050565b600080836001016000848152602001908152602001600020541415905092915050565b60007f01ffc9a7000000000000000000000000000000000000000000000000000000007bffffffffffffffffffffffffffffffffffffffffffffffffffffffff1916827bffffffffffffffffffffffffffffffffffffffffffffffffffffffff1916149050919050565b6000604051905090565b600080fd5b600080fd5b60007fffffffff0000000000000000000000000000000000000000000000000000000082169050919050565b612f9081612f5b565b8114612f9b57600080fd5b50565b600081359050612fad81612f87565b92915050565b600060208284031215612fc957612fc8612f51565b5b6000612fd784828501612f9e565b91505092915050565b60008115159050919050565b612ff581612fe0565b82525050565b60006020820190506130106000830184612fec565b92915050565b600081519050919050565b600082825260208201905092915050565b60005b83811015613050578082015181840152602081019050613035565b60008484015250505050565b6000601f19601f8301169050919050565b600061307882613016565b6130828185613021565b9350613092818560208601613032565b61309b8161305c565b840191505092915050565b600060208201905081810360008301526130c0818461306d565b905092915050565b6000819050919050565b6130db816130c8565b81146130e657600080fd5b50565b6000813590506130f8816130d2565b92915050565b60006020828403121561311457613113612f51565b5b6000613122848285016130e9565b91505092915050565b600073ffffffffffffffffffffffffffffffffffffffff82169050919050565b60006131568261312b565b9050919050565b6131668161314b565b82525050565b6000602082019050613181600083018461315d565b92915050565b6131908161314b565b811461319b57600080fd5b50565b6000813590506131ad81613187565b92915050565b600080604083850312156131ca576131c9612f51565b5b60006131d88582860161319e565b92505060206131e9858286016130e9565b9150509250929050565b6131fc816130c8565b82525050565b600060208201905061321760008301846131f3565b92915050565b60008060006060848603121561323657613235612f51565b5b60006132448682870161319e565b93505060206132558682870161319e565b9250506040613266868287016130e9565b9150509250925092565b6000819050919050565b61328381613270565b811461328e57600080fd5b50565b6000813590506132a08161327a565b92915050565b6000602082840312156132bc576132bb612f51565b5b60006132ca84828501613291565b91505092915050565b6132dc81613270565b82525050565b60006020820190506132f760008301846132d3565b92915050565b6000806040838503121561331457613313612f51565b5b600061332285828601613291565b92505060206133338582860161319e565b9150509250929050565b60006020828403121561335357613352612f51565b5b60006133618482850161319e565b91505092915050565b6000806040838503121561338157613380612f51565b5b600061338f85828601613291565b92505060206133a0858286016130e9565b9150509250929050565b6133b381612fe0565b81146133be57600080fd5b50565b6000813590506133d0816133aa565b92915050565b600080604083850312156133ed576133ec612f51565b5b60006133fb8582860161319e565b925050602061340c858286016133c1565b9150509250929050565b600080fd5b600080fd5b7f4e487b7100000000000000000000000000000000000000000000000000000000600052604160045260246000fd5b6134588261305c565b810181811067ffffffffffffffff8211171561347757613476613420565b5b80604052505050565b600061348a612f47565b9050613496828261344f565b919050565b600067ffffffffffffffff8211156134b6576134b5613420565b5b6134bf8261305c565b9050602081019050919050565b82818337600083830152505050565b60006134ee6134e98461349b565b613480565b90508281526020810184848401111561350a5761350961341b565b5b6135158482856134cc565b509392505050565b600082601f83011261353257613531613416565b5b81356135428482602086016134db565b91505092915050565b6000806000806080858703121561356557613564612f51565b5b60006135738782880161319e565b94505060206135848782880161319e565b9350506040613595878288016130e9565b925050606085013567ffffffffffffffff8111156135b6576135b5612f56565b5b6135c28782880161351d565b91505092959194509250565b600067ffffffffffffffff8211156135e9576135e8613420565b5b6135f28261305c565b9050602081019050919050565b600061361261360d846135ce565b613480565b90508281526020810184848401111561362e5761362d61341b565b5b6136398482856134cc565b509392505050565b600082601f83011261365657613655613416565b5b81356136668482602086016135ff565b91505092915050565b60006020828403121561368557613684612f51565b5b600082013567ffffffffffffffff8111156136a3576136a2612f56565b5b6136af84828501613641565b91505092915050565b600081519050919050565b600082825260208201905092915050565b6000819050602082019050919050565b6136ed816130c8565b82525050565b60006136ff83836136e4565b60208301905092915050565b6000602082019050919050565b6000613723826136b8565b61372d81856136c3565b9350613738836136d4565b8060005b8381101561376957815161375088826136f3565b975061375b8361370b565b92505060018101905061373c565b5085935050505092915050565b600060208201905081810360008301526137908184613718565b905092915050565b600080604083850312156137af576137ae612f51565b5b60006137bd8582860161319e565b92505060206137ce8582860161319e565b9150509250929050565b7f4e487b7100000000000000000000000000000000000000000000000000000000600052602260045260246000fd5b6000600282049050600182168061381f57607f821691505b602082108103613832576138316137d8565b5b50919050565b7f4552433732313a20617070726f76616c20746f2063757272656e74206f776e6560008201527f7200000000000000000000000000000000000000000000000000000000000000602082015250565b6000613894602183613021565b915061389f82613838565b604082019050919050565b600060208201905081810360008301526138c381613887565b9050919050565b7f4552433732313a20617070726f76652063616c6c6572206973206e6f7420746f60008201527f6b656e206f776e6572206f7220617070726f76656420666f7220616c6c000000602082015250565b6000613926603d83613021565b9150613931826138ca565b604082019050919050565b6000602082019050818103600083015261395581613919565b9050919050565b7f4552433732313a2063616c6c6572206973206e6f7420746f6b656e206f776e6560008201527f72206f7220617070726f76656400000000000000000000000000000000000000602082015250565b60006139b8602d83613021565b91506139c38261395c565b604082019050919050565b600060208201905081810360008301526139e7816139ab565b9050919050565b7f455243373231456e756d657261626c653a206f776e657220696e646578206f7560008201527f74206f6620626f756e6473000000000000000000000000000000000000000000602082015250565b6000613a4a602b83613021565b9150613a55826139ee565b604082019050919050565b60006020820190508181036000830152613a7981613a3d565b9050919050565b7f416363657373436f6e74726f6c3a2063616e206f6e6c792072656e6f756e636560008201527f20726f6c657320666f722073656c660000000000000000000000000000000000602082015250565b6000613adc602f83613021565b9150613ae782613a80565b604082019050919050565b60006020820190508181036000830152613b0b81613acf565b9050919050565b7f43616c6c6572206973206e6f742061206d696e74657200000000000000000000600082015250565b6000613b48601683613021565b9150613b5382613b12565b602082019050919050565b60006020820190508181036000830152613b7781613b3b565b9050919050565b6000606082019050613b93600083018661315d565b613ba060208301856131f3565b613bad60408301846131f3565b949350505050565b7f455243373231456e756d657261626c653a20676c6f62616c20696e646578206f60008201527f7574206f6620626f756e64730000000000000000000000000000000000000000602082015250565b6000613c11602c83613021565b9150613c1c82613bb5565b604082019050919050565b60006020820190508181036000830152613c4081613c04565b9050919050565b7f4e487b7100000000000000000000000000000000000000000000000000000000600052603260045260246000fd5b7f4552433732313a20696e76616c696420746f6b656e2049440000000000000000600082015250565b6000613cac601883613021565b9150613cb782613c76565b602082019050919050565b60006020820190508181036000830152613cdb81613c9f565b9050919050565b7f4552433732313a2061646472657373207a65726f206973206e6f74206120766160008201527f6c6964206f776e65720000000000000000000000000000000000000000000000602082015250565b6000613d3e602983613021565b9150613d4982613ce2565b604082019050919050565b60006020820190508181036000830152613d6d81613d31565b9050919050565b60008190508160005260206000209050919050565b60006020601f8301049050919050565b600082821b905092915050565b600060088302613dd67fffffffffffffffffffffffffffffffffffffffffffffffffffffffffffffffff82613d99565b613de08683613d99565b95508019841693508086168417925050509392505050565b6000819050919050565b6000613e1d613e18613e13846130c8565b613df8565b6130c8565b9050919050565b6000819050919050565b613e3783613e02565b613e4b613e4382613e24565b848454613da6565b825550505050565b600090565b613e60613e53565b613e6b818484613e2e565b505050565b5b81811015613e8f57613e84600082613e58565b600181019050613e71565b5050565b601f821115613ed457613ea581613d74565b613eae84613d89565b81016020851015613ebd578190505b613ed1613ec985613d89565b830182613e70565b50505b505050565b600082821c905092915050565b6000613ef760001984600802613ed9565b1980831691505092915050565b6000613f108383613ee6565b9150826002028217905092915050565b613f2982613016565b67ffffffffffffffff811115613f4257613f41613420565b5b613f4c8254613807565b613f57828285613e93565b600060209050601f831160018114613f8a5760008415613f78578287015190505b613f828582613f04565b865550613fea565b601f198416613f9886613d74565b60005b82811015613fc057848901518255600182019150602085019450602081019050613f9b565b86831015613fdd5784890151613fd9601f891682613ee6565b8355505b6001600288020188555050505b505050505050565b600081905092915050565b600061400882613016565b6140128185613ff2565b9350614022818560208601613032565b80840191505092915050565b600061403a8285613ffd565b91506140468284613ffd565b91508190509392505050565b7f4e487b7100000000000000000000000000000000000000000000000000000000600052601160045260246000fd5b600061408c826130c8565b91507fffffffffffffffffffffffffffffffffffffffffffffffffffffffffffffffff82036140be576140bd614052565b5b600182019050919050565b7f4f776e61626c653a206e6577206f776e657220697320746865207a65726f206160008201527f6464726573730000000000000000000000000000000000000000000000000000602082015250565b6000614125602683613021565b9150614130826140c9565b604082019050919050565b6000602082019050818103600083015261415481614118565b9050919050565b7f4552433732313a207472616e736665722066726f6d20696e636f72726563742060008201527f6f776e6572000000000000000000000000000000000000000000000000000000602082015250565b60006141b7602583613021565b91506141c28261415b565b604082019050919050565b600060208201905081810360008301526141e6816141aa565b9050919050565b7f4552433732313a207472616e7366657220746f20746865207a65726f2061646460008201527f7265737300000000000000000000000000000000000000000000000000000000602082015250565b6000614249602483613021565b9150614254826141ed565b604082019050919050565b600060208201905081810360008301526142788161423c565b9050919050565b7f4552433732313a206d696e7420746f20746865207a65726f2061646472657373600082015250565b60006142b5602083613021565b91506142c08261427f565b602082019050919050565b600060208201905081810360008301526142e4816142a8565b9050919050565b7f4552433732313a20746f6b656e20616c7265616479206d696e74656400000000600082015250565b6000614321601c83613021565b915061432c826142eb565b602082019050919050565b6000602082019050818103600083015261435081614314565b9050919050565b7f4f776e61626c653a2063616c6c6572206973206e6f7420746865206f776e6572600082015250565b600061438d602083613021565b915061439882614357565b602082019050919050565b600060208201905081810360008301526143bc81614380565b9050919050565b7f4552433732313a20617070726f766520746f2063616c6c657200000000000000600082015250565b60006143f9601983613021565b9150614404826143c3565b602082019050919050565b60006020820190508181036000830152614428816143ec565b9050919050565b7f4552433732313a207472616e7366657220746f206e6f6e20455243373231526560008201527f63656976657220696d706c656d656e7465720000000000000000000000000000602082015250565b600061448b603283613021565b91506144968261442f565b604082019050919050565b600060208201905081810360008301526144ba8161447e565b9050919050565b7f4e487b7100000000000000000000000000000000000000000000000000000000600052601260045260246000fd5b7f455243373231456e756d657261626c653a20636f6e736563757469766520747260008201527f616e7366657273206e6f7420737570706f727465640000000000000000000000602082015250565b600061454c603583613021565b9150614557826144f0565b604082019050919050565b6000602082019050818103600083015261457b8161453f565b9050919050565b7f416363657373436f6e74726f6c3a206163636f756e7420000000000000000000600082015250565b60006145b8601783613ff2565b91506145c382614582565b601782019050919050565b7f206973206d697373696e6720726f6c6520000000000000000000000000000000600082015250565b6000614604601183613ff2565b915061460f826145ce565b601182019050919050565b6000614625826145ab565b91506146318285613ffd565b915061463c826145f7565b91506146488284613ffd565b91508190509392505050565b600081519050919050565b600082825260208201905092915050565b600061467b82614654565b614685818561465f565b9350614695818560208601613032565b61469e8161305c565b840191505092915050565b60006080820190506146be600083018761315d565b6146cb602083018661315d565b6146d860408301856131f3565b81810360608301526146ea8184614670565b905095945050505050565b60008151905061470481612f87565b92915050565b6000602082840312156147205761471f612f51565b5b600061472e848285016146f5565b91505092915050565b6000614742826130c8565b915061474d836130c8565b925082820390508181111561476557614764614052565b5b92915050565b7f4e487b7100000000000000000000000000000000000000000000000000000000600052603160045260246000fd5b60006147a5826130c8565b91506147b0836130c8565b92508282026147be816130c8565b915082820484148315176147d5576147d4614052565b5b5092915050565b60006147e7826130c8565b91506147f2836130c8565b925082820190508082111561480a57614809614052565b5b92915050565b600061481b826130c8565b91506000820361482e5761482d614052565b5b600182039050919050565b7f537472696e67733a20686578206c656e67746820696e73756666696369656e74600082015250565b600061486f602083613021565b915061487a82614839565b602082019050919050565b6000602082019050818103600083015261489e81614862565b905091905056fea2646970667358221220f5c9ddcea1f19ee39f15c65f1b2c301db064addbc6e4d0c3364a61bd0400787864736f6c63430008140033",
  "linkReferences": {},
  "deployedLinkReferences": {}
}