{
  "_format": "hh-sol-artifact-1",
  "contractName": "Auction",
  "sourceName": "contracts/Auction.sol",
  "abi": [
    {
      "inputs": [
        {
          "internalType": "contract IERC20",
          "name": "_token",
          "type": "address"
        },
        {
          "internalType": "contract IERC721",
          "name": "_nft",
          "type": "address"
        }
      ],
      "stateMutability": "nonpayable",
      "type": "constructor"
    },
    {
      "anonymous": false,
      "inputs": [
        {
          "indexed": true,
          "internalType": "address",
          "name": "previousOwner",
          "type": "address"
        },
        {
          "indexed": true,
          "internalType": "address",
          "name": "newOwner",
          "type": "address"
        }
      ],
      "name": "OwnershipTransferred",
      "type": "event"
    },
    {
      "inputs": [],
      "name": "AUCTION_SERVICE_FEE_RATE",
      "outputs": [
        {
          "internalType": "uint256",
          "name": "",
          "type": "uint256"
        }
      ],
      "stateMutability": "view",
      "type": "function"
    },
    {
      "inputs": [],
      "name": "MINIMUM_BID_RATE",
      "outputs": [
        {
          "internalType": "uint256",
          "name": "",
          "type": "uint256"
        }
      ],
      "stateMutability": "view",
      "type": "function"
    },
    {
      "inputs": [
        {
          "internalType": "uint256",
          "name": "_auctionId",
          "type": "uint256"
        }
      ],
      "name": "cancelAuction",
      "outputs": [],
      "stateMutability": "nonpayable",
      "type": "function"
    },
    {
      "inputs": [
        {
          "internalType": "uint256",
          "name": "_tokenId",
          "type": "uint256"
        },
        {
          "internalType": "uint256",
          "name": "_initialPrice",
          "type": "uint256"
        },
        {
          "internalType": "uint256",
          "name": "_startTime",
          "type": "uint256"
        },
        {
          "internalType": "uint256",
          "name": "_endTime",
          "type": "uint256"
        }
      ],
      "name": "createAuction",
      "outputs": [],
      "stateMutability": "nonpayable",
      "type": "function"
    },
    {
      "inputs": [
        {
          "internalType": "uint256",
          "name": "_auctionId",
          "type": "uint256"
        }
      ],
      "name": "finishAuction",
      "outputs": [],
      "stateMutability": "nonpayable",
      "type": "function"
    },
    {
      "inputs": [
        {
          "internalType": "uint256",
          "name": "_auctionId",
          "type": "uint256"
        }
      ],
      "name": "getAuction",
      "outputs": [
        {
          "components": [
            {
              "internalType": "address",
              "name": "auctioneer",
              "type": "address"
            },
            {
              "internalType": "uint256",
              "name": "_tokenId",
              "type": "uint256"
            },
            {
              "internalType": "uint256",
              "name": "initialPrice",
              "type": "uint256"
            },
            {
              "internalType": "address",
              "name": "previousBidder",
              "type": "address"
            },
            {
              "internalType": "uint256",
              "name": "lastBid",
              "type": "uint256"
            },
            {
              "internalType": "address",
              "name": "lastBidder",
              "type": "address"
            },
            {
              "internalType": "uint256",
              "name": "startTime",
              "type": "uint256"
            },
            {
              "internalType": "uint256",
              "name": "endTime",
              "type": "uint256"
            },
            {
              "internalType": "bool",
              "name": "completed",
              "type": "bool"
            },
            {
              "internalType": "bool",
              "name": "active",
              "type": "bool"
            },
            {
              "internalType": "uint256",
              "name": "auctionId",
              "type": "uint256"
            }
          ],
          "internalType": "struct Auction.AuctionInfo",
          "name": "",
          "type": "tuple"
        }
      ],
      "stateMutability": "view",
      "type": "function"
    },
    {
      "inputs": [
        {
          "internalType": "bool",
          "name": "_active",
          "type": "bool"
        }
      ],
      "name": "getAuctionByStatus",
      "outputs": [
        {
          "components": [
            {
              "internalType": "address",
              "name": "auctioneer",
              "type": "address"
            },
            {
              "internalType": "uint256",
              "name": "_tokenId",
              "type": "uint256"
            },
            {
              "internalType": "uint256",
              "name": "initialPrice",
              "type": "uint256"
            },
            {
              "internalType": "address",
              "name": "previousBidder",
              "type": "address"
            },
            {
              "internalType": "uint256",
              "name": "lastBid",
              "type": "uint256"
            },
            {
              "internalType": "address",
              "name": "lastBidder",
              "type": "address"
            },
            {
              "internalType": "uint256",
              "name": "startTime",
              "type": "uint256"
            },
            {
              "internalType": "uint256",
              "name": "endTime",
              "type": "uint256"
            },
            {
              "internalType": "bool",
              "name": "completed",
              "type": "bool"
            },
            {
              "internalType": "bool",
              "name": "active",
              "type": "bool"
            },
            {
              "internalType": "uint256",
              "name": "auctionId",
              "type": "uint256"
            }
          ],
          "internalType": "struct Auction.AuctionInfo[]",
          "name": "",
          "type": "tuple[]"
        }
      ],
      "stateMutability": "view",
      "type": "function"
    },
    {
      "inputs": [
        {
          "internalType": "uint256",
          "name": "_auctionId",
          "type": "uint256"
        },
        {
          "internalType": "uint256",
          "name": "_bid",
          "type": "uint256"
        }
      ],
      "name": "joinAuction",
      "outputs": [],
      "stateMutability": "nonpayable",
      "type": "function"
    },
    {
      "inputs": [
        {
          "internalType": "address",
          "name": "",
          "type": "address"
        },
        {
          "internalType": "address",
          "name": "",
          "type": "address"
        },
        {
          "internalType": "uint256",
          "name": "",
          "type": "uint256"
        },
        {
          "internalType": "bytes",
          "name": "",
          "type": "bytes"
        }
      ],
      "name": "onERC721Received",
      "outputs": [
        {
          "internalType": "bytes4",
          "name": "",
          "type": "bytes4"
        }
      ],
      "stateMutability": "pure",
      "type": "function"
    },
    {
      "inputs": [],
      "name": "owner",
      "outputs": [
        {
          "internalType": "address",
          "name": "",
          "type": "address"
        }
      ],
      "stateMutability": "view",
      "type": "function"
    },
    {
      "inputs": [],
      "name": "renounceOwnership",
      "outputs": [],
      "stateMutability": "nonpayable",
      "type": "function"
    },
    {
      "inputs": [
        {
          "internalType": "address",
          "name": "newOwner",
          "type": "address"
        }
      ],
      "name": "transferOwnership",
      "outputs": [],
      "stateMutability": "nonpayable",
      "type": "function"
    }
  ],
  "bytecode": "0x60806040523480156200001157600080fd5b50604051620039f9380380620039f9833981810160405281019062000037919062000270565b620000576200004b620000e160201b60201c565b620000e960201b60201c565b81600260006101000a81548173ffffffffffffffffffffffffffffffffffffffff021916908373ffffffffffffffffffffffffffffffffffffffff16021790555080600160006101000a81548173ffffffffffffffffffffffffffffffffffffffff021916908373ffffffffffffffffffffffffffffffffffffffff1602179055505050620002b7565b600033905090565b60008060009054906101000a900473ffffffffffffffffffffffffffffffffffffffff169050816000806101000a81548173ffffffffffffffffffffffffffffffffffffffff021916908373ffffffffffffffffffffffffffffffffffffffff1602179055508173ffffffffffffffffffffffffffffffffffffffff168173ffffffffffffffffffffffffffffffffffffffff167f8be0079c531659141344cd1fd0a4f28419497f9722a3daafe3b4186f6b6457e060405160405180910390a35050565b600080fd5b600073ffffffffffffffffffffffffffffffffffffffff82169050919050565b6000620001df82620001b2565b9050919050565b6000620001f382620001d2565b9050919050565b6200020581620001e6565b81146200021157600080fd5b50565b6000815190506200022581620001fa565b92915050565b60006200023882620001d2565b9050919050565b6200024a816200022b565b81146200025657600080fd5b50565b6000815190506200026a816200023f565b92915050565b600080604083850312156200028a5762000289620001ad565b5b60006200029a8582860162000214565b9250506020620002ad8582860162000259565b9150509250929050565b61373280620002c76000396000f3fe608060405234801561001057600080fd5b50600436106100b45760003560e01c806396b5a7551161007157806396b5a7551461017b578063bd0a079d14610197578063c00a6fb7146101b5578063cf266ed0146101e5578063f08e6e7614610201578063f2fde38b1461021d576100b4565b8063150b7a02146100b9578063431f21da146100e95780636aadfdd014610105578063715018a61461012357806378bd79351461012d5780638da5cb5b1461015d575b600080fd5b6100d360048036038101906100ce91906124b5565b610239565b6040516100e09190612578565b60405180910390f35b61010360048036038101906100fe9190612593565b610267565b005b61010d6107fa565b60405161011a9190612609565b60405180910390f35b61012b6107ff565b005b61014760048036038101906101429190612624565b610813565b604051610154919061276b565b60405180910390f35b6101656109c4565b6040516101729190612796565b60405180910390f35b61019560048036038101906101909190612624565b6109ed565b005b61019f610ec9565b6040516101ac9190612609565b60405180910390f35b6101cf60048036038101906101ca91906127dd565b610ece565b6040516101dc919061299b565b60405180910390f35b6101ff60048036038101906101fa9190612624565b6111d5565b005b61021b600480360381019061021691906129bd565b6116c7565b005b610237600480360381019061023291906129fd565b611e27565b005b60007f150b7a023d4804d13e8c85fb27262cb750cf6ba9f9dd3bb30d90f482ceeb4b1f905095945050505050565b814211156102aa576040517f08c379a00000000000000000000000000000000000000000000000000000000081526004016102a190612a87565b60405180910390fd5b8082106102ec576040517f08c379a00000000000000000000000000000000000000000000000000000000081526004016102e390612b19565b60405180910390fd5b8260001061032f576040517f08c379a000000000000000000000000000000000000000000000000000000000815260040161032690612bab565b60405180910390fd5b3373ffffffffffffffffffffffffffffffffffffffff16600160009054906101000a900473ffffffffffffffffffffffffffffffffffffffff1673ffffffffffffffffffffffffffffffffffffffff16636352211e866040518263ffffffff1660e01b81526004016103a19190612609565b602060405180830381865afa1580156103be573d6000803e3d6000fd5b505050506040513d601f19601f820116820180604052508101906103e29190612be0565b73ffffffffffffffffffffffffffffffffffffffff1614610438576040517f08c379a000000000000000000000000000000000000000000000000000000000815260040161042f90612c59565b60405180910390fd5b3073ffffffffffffffffffffffffffffffffffffffff16600160009054906101000a900473ffffffffffffffffffffffffffffffffffffffff1673ffffffffffffffffffffffffffffffffffffffff1663081812fc866040518263ffffffff1660e01b81526004016104aa9190612609565b602060405180830381865afa1580156104c7573d6000803e3d6000fd5b505050506040513d601f19601f820116820180604052508101906104eb9190612be0565b73ffffffffffffffffffffffffffffffffffffffff1614610541576040517f08c379a000000000000000000000000000000000000000000000000000000000815260040161053890612ceb565b60405180910390fd5b600160009054906101000a900473ffffffffffffffffffffffffffffffffffffffff1673ffffffffffffffffffffffffffffffffffffffff166342842e0e3330876040518463ffffffff1660e01b81526004016105a093929190612d0b565b600060405180830381600087803b1580156105ba57600080fd5b505af11580156105ce573d6000803e3d6000fd5b5050505060006040518061016001604052803373ffffffffffffffffffffffffffffffffffffffff168152602001868152602001858152602001600073ffffffffffffffffffffffffffffffffffffffff168152602001858152602001600073ffffffffffffffffffffffffffffffffffffffff168152602001848152602001838152602001600015158152602001600115158152602001600380549050815250905060038190806001815401808255809150506001900390600052602060002090600a020160009091909190915060008201518160000160006101000a81548173ffffffffffffffffffffffffffffffffffffffff021916908373ffffffffffffffffffffffffffffffffffffffff160217905550602082015181600101556040820151816002015560608201518160030160006101000a81548173ffffffffffffffffffffffffffffffffffffffff021916908373ffffffffffffffffffffffffffffffffffffffff1602179055506080820151816004015560a08201518160050160006101000a81548173ffffffffffffffffffffffffffffffffffffffff021916908373ffffffffffffffffffffffffffffffffffffffff16021790555060c0820151816006015560e082015181600701556101008201518160080160006101000a81548160ff0219169083151502179055506101208201518160080160016101000a81548160ff021916908315150217905550610140820151816009015550505050505050565b606e81565b610807611eaa565b6108116000611f28565b565b61081b612312565b6003828154811061082f5761082e612d42565b5b90600052602060002090600a0201604051806101600160405290816000820160009054906101000a900473ffffffffffffffffffffffffffffffffffffffff1673ffffffffffffffffffffffffffffffffffffffff1673ffffffffffffffffffffffffffffffffffffffff16815260200160018201548152602001600282015481526020016003820160009054906101000a900473ffffffffffffffffffffffffffffffffffffffff1673ffffffffffffffffffffffffffffffffffffffff1673ffffffffffffffffffffffffffffffffffffffff168152602001600482015481526020016005820160009054906101000a900473ffffffffffffffffffffffffffffffffffffffff1673ffffffffffffffffffffffffffffffffffffffff1673ffffffffffffffffffffffffffffffffffffffff16815260200160068201548152602001600782015481526020016008820160009054906101000a900460ff161515151581526020016008820160019054906101000a900460ff161515151581526020016009820154815250509050919050565b60008060009054906101000a900473ffffffffffffffffffffffffffffffffffffffff16905090565b8060038181548110610a0257610a01612d42565b5b90600052602060002090600a020160000160009054906101000a900473ffffffffffffffffffffffffffffffffffffffff1673ffffffffffffffffffffffffffffffffffffffff163373ffffffffffffffffffffffffffffffffffffffff161480610a9f5750610a706109c4565b73ffffffffffffffffffffffffffffffffffffffff163373ffffffffffffffffffffffffffffffffffffffff16145b610ade576040517f08c379a0000000000000000000000000000000000000000000000000000000008152600401610ad590612de3565b60405180910390fd5b6000151560038381548110610af657610af5612d42565b5b90600052602060002090600a020160080160009054906101000a900460ff16151514610b57576040517f08c379a0000000000000000000000000000000000000000000000000000000008152600401610b4e90612e4f565b60405180910390fd5b60038281548110610b6b57610b6a612d42565b5b90600052602060002090600a020160080160019054906101000a900460ff16610bc9576040517f08c379a0000000000000000000000000000000000000000000000000000000008152600401610bc090612ebb565b60405180910390fd5b600160009054906101000a900473ffffffffffffffffffffffffffffffffffffffff1673ffffffffffffffffffffffffffffffffffffffff166342842e0e3060038581548110610c1c57610c1b612d42565b5b90600052602060002090600a020160000160009054906101000a900473ffffffffffffffffffffffffffffffffffffffff1660038681548110610c6257610c61612d42565b5b90600052602060002090600a0201600101546040518463ffffffff1660e01b8152600401610c9293929190612d0b565b600060405180830381600087803b158015610cac57600080fd5b505af1158015610cc0573d6000803e3d6000fd5b50505050600073ffffffffffffffffffffffffffffffffffffffff1660038381548110610cf057610cef612d42565b5b90600052602060002090600a020160050160009054906101000a900473ffffffffffffffffffffffffffffffffffffffff1673ffffffffffffffffffffffffffffffffffffffff1614610e4957600260009054906101000a900473ffffffffffffffffffffffffffffffffffffffff1673ffffffffffffffffffffffffffffffffffffffff1663a9059cbb60038481548110610d8f57610d8e612d42565b5b90600052602060002090600a020160050160009054906101000a900473ffffffffffffffffffffffffffffffffffffffff1660038581548110610dd557610dd4612d42565b5b90600052602060002090600a0201600401546040518363ffffffff1660e01b8152600401610e04929190612edb565b6020604051808303816000875af1158015610e23573d6000803e3d6000fd5b505050506040513d601f19601f82011682018060405250810190610e479190612f19565b505b600160038381548110610e5f57610e5e612d42565b5b90600052602060002090600a020160080160006101000a81548160ff021916908315150217905550600060038381548110610e9d57610e9c612d42565b5b90600052602060002090600a020160080160016101000a81548160ff0219169083151502179055505050565b600381565b60606000805b600380549050811015610f405783151560038281548110610ef857610ef7612d42565b5b90600052602060002090600a020160080160019054906101000a900460ff16151503610f2d578180610f2990612f75565b9250505b8080610f3890612f75565b915050610ed4565b5060008167ffffffffffffffff811115610f5d57610f5c612fbd565b5b604051908082528060200260200182016040528015610f9657816020015b610f83612312565b815260200190600190039081610f7b5790505b5090506000805b6003805490508110156111c95785151560038281548110610fc157610fc0612d42565b5b90600052602060002090600a020160080160019054906101000a900460ff161515036111b65760038181548110610ffb57610ffa612d42565b5b90600052602060002090600a0201604051806101600160405290816000820160009054906101000a900473ffffffffffffffffffffffffffffffffffffffff1673ffffffffffffffffffffffffffffffffffffffff1673ffffffffffffffffffffffffffffffffffffffff16815260200160018201548152602001600282015481526020016003820160009054906101000a900473ffffffffffffffffffffffffffffffffffffffff1673ffffffffffffffffffffffffffffffffffffffff1673ffffffffffffffffffffffffffffffffffffffff168152602001600482015481526020016005820160009054906101000a900473ffffffffffffffffffffffffffffffffffffffff1673ffffffffffffffffffffffffffffffffffffffff1673ffffffffffffffffffffffffffffffffffffffff16815260200160068201548152602001600782015481526020016008820160009054906101000a900460ff161515151581526020016008820160019054906101000a900460ff1615151515815260200160098201548152505083838151811061119c5761119b612d42565b5b602002602001018190525081806111b290612f75565b9250505b80806111c190612f75565b915050610f9d565b50819350505050919050565b80600381815481106111ea576111e9612d42565b5b90600052602060002090600a020160000160009054906101000a900473ffffffffffffffffffffffffffffffffffffffff1673ffffffffffffffffffffffffffffffffffffffff163373ffffffffffffffffffffffffffffffffffffffff16148061128757506112586109c4565b73ffffffffffffffffffffffffffffffffffffffff163373ffffffffffffffffffffffffffffffffffffffff16145b6112c6576040517f08c379a00000000000000000000000000000000000000000000000000000000081526004016112bd90612de3565b60405180910390fd5b60001515600383815481106112de576112dd612d42565b5b90600052602060002090600a020160080160009054906101000a900460ff1615151461133f576040517f08c379a000000000000000000000000000000000000000000000000000000000815260040161133690612e4f565b60405180910390fd5b6003828154811061135357611352612d42565b5b90600052602060002090600a020160080160019054906101000a900460ff166113b1576040517f08c379a00000000000000000000000000000000000000000000000000000000081526004016113a890612ebb565b60405180910390fd5b600160009054906101000a900473ffffffffffffffffffffffffffffffffffffffff1673ffffffffffffffffffffffffffffffffffffffff166342842e0e306003858154811061140457611403612d42565b5b90600052602060002090600a020160050160009054906101000a900473ffffffffffffffffffffffffffffffffffffffff166003868154811061144a57611449612d42565b5b90600052602060002090600a0201600101546040518463ffffffff1660e01b815260040161147a93929190612d0b565b600060405180830381600087803b15801561149457600080fd5b505af11580156114a8573d6000803e3d6000fd5b505050506000600383815481106114c2576114c1612d42565b5b90600052602060002090600a02016004015490506000600384815481106114ec576114eb612d42565b5b90600052602060002090600a0201600201546003858154811061151257611511612d42565b5b90600052602060002090600a02016004015461152e9190612fec565b9050600060646003836115419190613020565b61154b9190613091565b90506000818461155b9190612fec565b9050600260009054906101000a900473ffffffffffffffffffffffffffffffffffffffff1673ffffffffffffffffffffffffffffffffffffffff1663a9059cbb600388815481106115af576115ae612d42565b5b90600052602060002090600a020160000160009054906101000a900473ffffffffffffffffffffffffffffffffffffffff16836040518363ffffffff1660e01b81526004016115ff929190612edb565b6020604051808303816000875af115801561161e573d6000803e3d6000fd5b505050506040513d601f19601f820116820180604052508101906116429190612f19565b5060016003878154811061165957611658612d42565b5b90600052602060002090600a020160080160006101000a81548160ff02191690831515021790555060006003878154811061169757611696612d42565b5b90600052602060002090600a020160080160016101000a81548160ff021916908315150217905550505050505050565b6000600383815481106116dd576116dc612d42565b5b90600052602060002090600a0201604051806101600160405290816000820160009054906101000a900473ffffffffffffffffffffffffffffffffffffffff1673ffffffffffffffffffffffffffffffffffffffff1673ffffffffffffffffffffffffffffffffffffffff16815260200160018201548152602001600282015481526020016003820160009054906101000a900473ffffffffffffffffffffffffffffffffffffffff1673ffffffffffffffffffffffffffffffffffffffff1673ffffffffffffffffffffffffffffffffffffffff168152602001600482015481526020016005820160009054906101000a900473ffffffffffffffffffffffffffffffffffffffff1673ffffffffffffffffffffffffffffffffffffffff1673ffffffffffffffffffffffffffffffffffffffff16815260200160068201548152602001600782015481526020016008820160009054906101000a900460ff161515151581526020016008820160019054906101000a900460ff1615151515815260200160098201548152505090508060c001514210156118b4576040517f08c379a00000000000000000000000000000000000000000000000000000000081526004016118ab9061310e565b60405180910390fd5b60001515816101000151151514611900576040517f08c379a00000000000000000000000000000000000000000000000000000000081526004016118f790612e4f565b60405180910390fd5b806101200151611945576040517f08c379a000000000000000000000000000000000000000000000000000000000815260040161193c90612ebb565b60405180910390fd5b60008073ffffffffffffffffffffffffffffffffffffffff168260a0015173ffffffffffffffffffffffffffffffffffffffff16146119a0576064606e83608001516119919190613020565b61199b9190613091565b6119a6565b81604001515b9050828111156119eb576040517f08c379a00000000000000000000000000000000000000000000000000000000081526004016119e2906131a0565b60405180910390fd5b82600260009054906101000a900473ffffffffffffffffffffffffffffffffffffffff1673ffffffffffffffffffffffffffffffffffffffff166370a08231336040518263ffffffff1660e01b8152600401611a479190612796565b602060405180830381865afa158015611a64573d6000803e3d6000fd5b505050506040513d601f19601f82011682018060405250810190611a8891906131d5565b1015611ac9576040517f08c379a0000000000000000000000000000000000000000000000000000000008152600401611ac09061324e565b60405180910390fd5b82600260009054906101000a900473ffffffffffffffffffffffffffffffffffffffff1673ffffffffffffffffffffffffffffffffffffffff1663dd62ed3e33306040518363ffffffff1660e01b8152600401611b2792919061326e565b602060405180830381865afa158015611b44573d6000803e3d6000fd5b505050506040513d601f19601f82011682018060405250810190611b6891906131d5565b1015611ba9576040517f08c379a0000000000000000000000000000000000000000000000000000000008152600401611ba0906132e3565b60405180910390fd5b3373ffffffffffffffffffffffffffffffffffffffff16826000015173ffffffffffffffffffffffffffffffffffffffff1603611c1b576040517f08c379a0000000000000000000000000000000000000000000000000000000008152600401611c129061334f565b60405180910390fd5b611c49600260009054906101000a900473ffffffffffffffffffffffffffffffffffffffff16333086611fec565b600073ffffffffffffffffffffffffffffffffffffffff168260a0015173ffffffffffffffffffffffffffffffffffffffff1614611d2b57600260009054906101000a900473ffffffffffffffffffffffffffffffffffffffff1673ffffffffffffffffffffffffffffffffffffffff1663a9059cbb8360a0015184608001516040518363ffffffff1660e01b8152600401611ce6929190612edb565b6020604051808303816000875af1158015611d05573d6000803e3d6000fd5b505050506040513d601f19601f82011682018060405250810190611d299190612f19565b505b8160a0015160038581548110611d4457611d43612d42565b5b90600052602060002090600a020160030160006101000a81548173ffffffffffffffffffffffffffffffffffffffff021916908373ffffffffffffffffffffffffffffffffffffffff1602179055503360038581548110611da857611da7612d42565b5b90600052602060002090600a020160050160006101000a81548173ffffffffffffffffffffffffffffffffffffffff021916908373ffffffffffffffffffffffffffffffffffffffff1602179055508260038581548110611e0c57611e0b612d42565b5b90600052602060002090600a02016004018190555050505050565b611e2f611eaa565b600073ffffffffffffffffffffffffffffffffffffffff168173ffffffffffffffffffffffffffffffffffffffff1603611e9e576040517f08c379a0000000000000000000000000000000000000000000000000000000008152600401611e95906133e1565b60405180910390fd5b611ea781611f28565b50565b611eb2612075565b73ffffffffffffffffffffffffffffffffffffffff16611ed06109c4565b73ffffffffffffffffffffffffffffffffffffffff1614611f26576040517f08c379a0000000000000000000000000000000000000000000000000000000008152600401611f1d9061344d565b60405180910390fd5b565b60008060009054906101000a900473ffffffffffffffffffffffffffffffffffffffff169050816000806101000a81548173ffffffffffffffffffffffffffffffffffffffff021916908373ffffffffffffffffffffffffffffffffffffffff1602179055508173ffffffffffffffffffffffffffffffffffffffff168173ffffffffffffffffffffffffffffffffffffffff167f8be0079c531659141344cd1fd0a4f28419497f9722a3daafe3b4186f6b6457e060405160405180910390a35050565b61206f846323b872dd60e01b85858560405160240161200d93929190612d0b565b604051602081830303815290604052907bffffffffffffffffffffffffffffffffffffffffffffffffffffffff19166020820180517bffffffffffffffffffffffffffffffffffffffffffffffffffffffff838183161783525050505061207d565b50505050565b600033905090565b60006120df826040518060400160405280602081526020017f5361666545524332303a206c6f772d6c6576656c2063616c6c206661696c65648152508573ffffffffffffffffffffffffffffffffffffffff166121459092919063ffffffff16565b90506000815114806121015750808060200190518101906121009190612f19565b5b612140576040517f08c379a0000000000000000000000000000000000000000000000000000000008152600401612137906134df565b60405180910390fd5b505050565b6060612154848460008561215d565b90509392505050565b6060824710156121a2576040517f08c379a000000000000000000000000000000000000000000000000000000000815260040161219990613571565b60405180910390fd5b6000808673ffffffffffffffffffffffffffffffffffffffff1685876040516121cb9190613602565b60006040518083038185875af1925050503d8060008114612208576040519150601f19603f3d011682016040523d82523d6000602084013e61220d565b606091505b509150915061221e8783838761222a565b92505050949350505050565b6060831561228c576000835103612284576122448561229f565b612283576040517f08c379a000000000000000000000000000000000000000000000000000000000815260040161227a90613665565b60405180910390fd5b5b829050612297565b61229683836122c2565b5b949350505050565b6000808273ffffffffffffffffffffffffffffffffffffffff163b119050919050565b6000825111156122d55781518083602001fd5b806040517f08c379a000000000000000000000000000000000000000000000000000000000815260040161230991906136da565b60405180910390fd5b604051806101600160405280600073ffffffffffffffffffffffffffffffffffffffff1681526020016000815260200160008152602001600073ffffffffffffffffffffffffffffffffffffffff16815260200160008152602001600073ffffffffffffffffffffffffffffffffffffffff1681526020016000815260200160008152602001600015158152602001600015158152602001600081525090565b600080fd5b600080fd5b600073ffffffffffffffffffffffffffffffffffffffff82169050919050565b60006123e7826123bc565b9050919050565b6123f7816123dc565b811461240257600080fd5b50565b600081359050612414816123ee565b92915050565b6000819050919050565b61242d8161241a565b811461243857600080fd5b50565b60008135905061244a81612424565b92915050565b600080fd5b600080fd5b600080fd5b60008083601f84011261247557612474612450565b5b8235905067ffffffffffffffff81111561249257612491612455565b5b6020830191508360018202830111156124ae576124ad61245a565b5b9250929050565b6000806000806000608086880312156124d1576124d06123b2565b5b60006124df88828901612405565b95505060206124f088828901612405565b94505060406125018882890161243b565b935050606086013567ffffffffffffffff811115612522576125216123b7565b5b61252e8882890161245f565b92509250509295509295909350565b60007fffffffff0000000000000000000000000000000000000000000000000000000082169050919050565b6125728161253d565b82525050565b600060208201905061258d6000830184612569565b92915050565b600080600080608085870312156125ad576125ac6123b2565b5b60006125bb8782880161243b565b94505060206125cc8782880161243b565b93505060406125dd8782880161243b565b92505060606125ee8782880161243b565b91505092959194509250565b6126038161241a565b82525050565b600060208201905061261e60008301846125fa565b92915050565b60006020828403121561263a576126396123b2565b5b60006126488482850161243b565b91505092915050565b61265a816123dc565b82525050565b6126698161241a565b82525050565b60008115159050919050565b6126848161266f565b82525050565b610160820160008201516126a16000850182612651565b5060208201516126b46020850182612660565b5060408201516126c76040850182612660565b5060608201516126da6060850182612651565b5060808201516126ed6080850182612660565b5060a082015161270060a0850182612651565b5060c082015161271360c0850182612660565b5060e082015161272660e0850182612660565b5061010082015161273b61010085018261267b565b5061012082015161275061012085018261267b565b50610140820151612765610140850182612660565b50505050565b600061016082019050612781600083018461268a565b92915050565b612790816123dc565b82525050565b60006020820190506127ab6000830184612787565b92915050565b6127ba8161266f565b81146127c557600080fd5b50565b6000813590506127d7816127b1565b92915050565b6000602082840312156127f3576127f26123b2565b5b6000612801848285016127c8565b91505092915050565b600081519050919050565b600082825260208201905092915050565b6000819050602082019050919050565b6101608201600082015161284d6000850182612651565b5060208201516128606020850182612660565b5060408201516128736040850182612660565b5060608201516128866060850182612651565b5060808201516128996080850182612660565b5060a08201516128ac60a0850182612651565b5060c08201516128bf60c0850182612660565b5060e08201516128d260e0850182612660565b506101008201516128e761010085018261267b565b506101208201516128fc61012085018261267b565b50610140820151612911610140850182612660565b50505050565b60006129238383612836565b6101608301905092915050565b6000602082019050919050565b60006129488261280a565b6129528185612815565b935061295d83612826565b8060005b8381101561298e5781516129758882612917565b975061298083612930565b925050600181019050612961565b5085935050505092915050565b600060208201905081810360008301526129b5818461293d565b905092915050565b600080604083850312156129d4576129d36123b2565b5b60006129e28582860161243b565b92505060206129f38582860161243b565b9150509250929050565b600060208284031215612a1357612a126123b2565b5b6000612a2184828501612405565b91505092915050565b600082825260208201905092915050565b7f41756374696f6e2063616e206e6f742073746172740000000000000000000000600082015250565b6000612a71601583612a2a565b9150612a7c82612a3b565b602082019050919050565b60006020820190508181036000830152612aa081612a64565b9050919050565b7f41756374696f6e2063616e206e6f7420656e64206265666f726520697420737460008201527f6172747300000000000000000000000000000000000000000000000000000000602082015250565b6000612b03602483612a2a565b9150612b0e82612aa7565b604082019050919050565b60006020820190508181036000830152612b3281612af6565b9050919050565b7f496e697469616c207072696365206d757374206265206772656174657220746860008201527f616e203000000000000000000000000000000000000000000000000000000000602082015250565b6000612b95602483612a2a565b9150612ba082612b39565b604082019050919050565b60006020820190508181036000830152612bc481612b88565b9050919050565b600081519050612bda816123ee565b92915050565b600060208284031215612bf657612bf56123b2565b5b6000612c0484828501612bcb565b91505092915050565b7f4d757374207374616b6520796f7572206f776e20746f6b656e00000000000000600082015250565b6000612c43601983612a2a565b9150612c4e82612c0d565b602082019050919050565b60006020820190508181036000830152612c7281612c36565b9050919050565b7f5468697320636f6e7472616374206d75737420626520617070726f766564207460008201527f6f207472616e736665722074686520746f6b656e000000000000000000000000602082015250565b6000612cd5603483612a2a565b9150612ce082612c79565b604082019050919050565b60006020820190508181036000830152612d0481612cc8565b9050919050565b6000606082019050612d206000830186612787565b612d2d6020830185612787565b612d3a60408301846125fa565b949350505050565b7f4e487b7100000000000000000000000000000000000000000000000000000000600052603260045260246000fd5b7f4f6e6c792061756374696f6e656572206f72206f776e65722063616e2070657260008201527f666f726d207468697320616374696f6e00000000000000000000000000000000602082015250565b6000612dcd603083612a2a565b9150612dd882612d71565b604082019050919050565b60006020820190508181036000830152612dfc81612dc0565b9050919050565b7f41756374696f6e20697320616c726561647920636f6d706c6574656400000000600082015250565b6000612e39601c83612a2a565b9150612e4482612e03565b602082019050919050565b60006020820190508181036000830152612e6881612e2c565b9050919050565b7f41756374696f6e206973206e6f74206163746976650000000000000000000000600082015250565b6000612ea5601583612a2a565b9150612eb082612e6f565b602082019050919050565b60006020820190508181036000830152612ed481612e98565b9050919050565b6000604082019050612ef06000830185612787565b612efd60208301846125fa565b9392505050565b600081519050612f13816127b1565b92915050565b600060208284031215612f2f57612f2e6123b2565b5b6000612f3d84828501612f04565b91505092915050565b7f4e487b7100000000000000000000000000000000000000000000000000000000600052601160045260246000fd5b6000612f808261241a565b91507fffffffffffffffffffffffffffffffffffffffffffffffffffffffffffffffff8203612fb257612fb1612f46565b5b600182019050919050565b7f4e487b7100000000000000000000000000000000000000000000000000000000600052604160045260246000fd5b6000612ff78261241a565b91506130028361241a565b925082820390508181111561301a57613019612f46565b5b92915050565b600061302b8261241a565b91506130368361241a565b92508282026130448161241a565b9150828204841483151761305b5761305a612f46565b5b5092915050565b7f4e487b7100000000000000000000000000000000000000000000000000000000600052601260045260246000fd5b600061309c8261241a565b91506130a78361241a565b9250826130b7576130b6613062565b5b828204905092915050565b7f41756374696f6e20686173206e6f742073746172746564000000000000000000600082015250565b60006130f8601783612a2a565b9150613103826130c2565b602082019050919050565b60006020820190508181036000830152613127816130eb565b9050919050565b7f426964207072696365206d7573742062652067726561746572207468616e207460008201527f6865206d696e696d756d20707269636500000000000000000000000000000000602082015250565b600061318a603083612a2a565b91506131958261312e565b604082019050919050565b600060208201905081810360008301526131b98161317d565b9050919050565b6000815190506131cf81612424565b92915050565b6000602082840312156131eb576131ea6123b2565b5b60006131f9848285016131c0565b91505092915050565b7f496e73756666696369656e742062616c616e6365000000000000000000000000600082015250565b6000613238601483612a2a565b915061324382613202565b602082019050919050565b600060208201905081810360008301526132678161322b565b9050919050565b60006040820190506132836000830185612787565b6132906020830184612787565b9392505050565b7f496e73756666696369656e7420616c6c6f77616e636500000000000000000000600082015250565b60006132cd601683612a2a565b91506132d882613297565b602082019050919050565b600060208201905081810360008301526132fc816132c0565b9050919050565b7f43616e206e6f7420626964206f6e20796f7572206f776e2061756374696f6e00600082015250565b6000613339601f83612a2a565b915061334482613303565b602082019050919050565b600060208201905081810360008301526133688161332c565b9050919050565b7f4f776e61626c653a206e6577206f776e657220697320746865207a65726f206160008201527f6464726573730000000000000000000000000000000000000000000000000000602082015250565b60006133cb602683612a2a565b91506133d68261336f565b604082019050919050565b600060208201905081810360008301526133fa816133be565b9050919050565b7f4f776e61626c653a2063616c6c6572206973206e6f7420746865206f776e6572600082015250565b6000613437602083612a2a565b915061344282613401565b602082019050919050565b600060208201905081810360008301526134668161342a565b9050919050565b7f5361666545524332303a204552433230206f7065726174696f6e20646964206e60008201527f6f74207375636365656400000000000000000000000000000000000000000000602082015250565b60006134c9602a83612a2a565b91506134d48261346d565b604082019050919050565b600060208201905081810360008301526134f8816134bc565b9050919050565b7f416464726573733a20696e73756666696369656e742062616c616e636520666f60008201527f722063616c6c0000000000000000000000000000000000000000000000000000602082015250565b600061355b602683612a2a565b9150613566826134ff565b604082019050919050565b6000602082019050818103600083015261358a8161354e565b9050919050565b600081519050919050565b600081905092915050565b60005b838110156135c55780820151818401526020810190506135aa565b60008484015250505050565b60006135dc82613591565b6135e6818561359c565b93506135f68185602086016135a7565b80840191505092915050565b600061360e82846135d1565b915081905092915050565b7f416464726573733a2063616c6c20746f206e6f6e2d636f6e7472616374000000600082015250565b600061364f601d83612a2a565b915061365a82613619565b602082019050919050565b6000602082019050818103600083015261367e81613642565b9050919050565b600081519050919050565b6000601f19601f8301169050919050565b60006136ac82613685565b6136b68185612a2a565b93506136c68185602086016135a7565b6136cf81613690565b840191505092915050565b600060208201905081810360008301526136f481846136a1565b90509291505056fea2646970667358221220cea18355b0a1d4ebb1a7429907462d9e9e0cad70f7b0a1b00762dffec773302664736f6c63430008140033",
  "linkReferences": {},
  "deployedLinkReferences": {}
}